:020000040800F2
:10000000005000202D280008312600083326000863
:1000100035260008372600083926000800000000B1
:100020000000000000000000000000003B26000867
:100030003D260008000000003F2600084126000879
:10004000752800087528000875280008752800081C
:10005000752800087528000849260008752800083A
:1000600075280008752800087528000875280008FC
:1000700075280008752800087528000875280008EC
:1000800075280008752800087528000875280008DC
:100090005526000875280008752800086526000800
:1000A00075280008752800087528000875280008BC
:1000B00075280008752800087528000875280008AC
:1000C000752800087528000875280008752800089C
:1000D0007126000881260008752800087528000888
:1000E0007528000875280008752800080000000021
:1000F0000000000000000000000000000000000000
:0C01000000000000000000005FF808F1A3
:1001100010B5054C237833B9044B13B10448AFF341
:1001200000800123237010BDEC03002000000000BC
:100130000010010808B5034B1BB103490348AFF396
:10014000008008BD00000000F0030020001001083E
:1001500081F0004102E000BF83F0004330B54FEA78
:1001600041044FEA430594EA050F08BF90EA020FE5
:100170001FBF54EA000C55EA020C7FEA645C7FEA78
:10018000655C00F0E2804FEA5454D4EB5555B8BF9B
:100190006D420CDD2C4480EA020281EA030382EA0C
:1001A000000083EA010180EA020281EA0303362D9E
:1001B00088BF30BD11F0004F4FEA01314FF4801C71
:1001C0004CEA113102D0404261EB410113F0004F83
:1001D0004FEA03334CEA133302D0524263EB43033A
:1001E00094EA050F00F0A780A4F10104D5F1200ED8
:1001F0000DDB02FA0EFC22FA05F2801841F1000133
:1002000003FA0EF2801843FA05F359410EE0A5F106
:1002100020050EF1200E012A03FA0EFC28BF4CF037
:10022000020C43FA05F3C01851EBE37101F00045ED
:1002300007D54FF0000EDCF1000C7EEB00006EEBFA
:100240000101B1F5801F1BD3B1F5001F0CD3490884
:100250005FEA30004FEA3C0C04F101044FEA4452DB
:1002600012F5800F80F09A80BCF1004F08BF5FEA62
:10027000500C50F1000041EB045141EA050130BD42
:100280005FEA4C0C404141EB0101013C28BFB1F554
:10029000801FE9D291F0000F04BF01460020B1FA9F
:1002A00081F308BF2033A3F10B03B3F120020CDA72
:1002B0000C3208DD02F1140CC2F10C0201FA0CF050
:1002C00021FA02F10CE002F11402D8BFC2F1200CB5
:1002D00001FA02F120FA0CFCDCBF41EA0C0190406B
:1002E000E41AA2BF01EB0451294330BD6FEA0404B4
:1002F0001F3C1CDA0C340EDC04F11404C4F120029F
:1003000020FA04F001FA02F340EA030021FA04F3B0
:1003100045EA030130BDC4F10C04C4F1200220FA07
:1003200002F001FA04F340EA0300294630BD21FA45
:1003300004F0294630BD94F0000F83F4801306BF0B
:1003400081F480110134013D4EE77FEA645C18BFFF
:100350007FEA655C29D094EA050F08BF90EA020F96
:1003600005D054EA000C04BF1946104630BD91EA8E
:10037000030F1EBF0021002030BD5FEA545C05D191
:100380004000494128BF41F0004130BD14F58004D0
:100390003CBF01F5801130BD01F0004545F0FE4144
:1003A00041F470014FF0000030BD7FEA645C1ABF79
:1003B000194610467FEA655C1CBF0B46024650EAB0
:1003C000013406BF52EA033591EA030F41F40021DC
:1003D00030BD00BF90F0000F04BF0021704730B562
:1003E0004FF4806404F132044FF000054FF0000137
:1003F00050E700BF90F0000F04BF0021704730B5F8
:100400004FF4806404F1320410F0004548BF4042CC
:100410004FF000013EE700BF42004FEAE2014FEA21
:1004200031014FEA02701FBF12F07F4393F07F4FFC
:1004300081F06051704732F07F4208BF704793F0FF
:100440007F4F04BF41F40021704730B54FF4607412
:1004500001F0004521F000411CE700BF50EA010215
:1004600008BF704730B54FF000050AE050EA0102BE
:1004700008BF704730B511F0004502D5404261EB2E
:1004800041014FF4806404F132045FEA915C3FF46F
:10049000D8AE4FF003025FEADC0C18BF03325FEA0C
:1004A000DC0C18BF033202EBDC02C2F1200300FABD
:1004B00003FC20FA02F001FA03FE40EA0E0021FAE2
:1004C00002F11444BDE600BF70B54FF0FF0C4CF4D0
:1004D000E06C1CEA11541DBF1CEA135594EA0C0F82
:1004E00095EA0C0F00F0DEF82C4481EA030621EABD
:1004F0004C5123EA4C5350EA013518BF52EA0335F8
:1005000041F4801143F4801338D0A0FB02CE4FF0A9
:100510000005E1FB02E506F00042E0FB03E54FF0D9
:100520000006E1FB03569CF0000F18BF4EF0010ED1
:10053000A4F1FF04B6F5007F64F5407404D25FEACD
:100540004E0E6D4146EB060642EAC62141EA555180
:100550004FEAC52040EA5E504FEACE2EB4F1FD0CC2
:1005600088BFBCF5E06F1ED8BEF1004F08BF5FEA40
:10057000500E50F1000041EB045170BD06F00046F2
:1005800046EA010140EA020081EA0301B4EB5C049F
:10059000C2BFD4EB0C0541EA045170BD41F4801197
:1005A0004FF0000E013C00F3AB8014F1360FDEBFBC
:1005B000002001F0004170BDC4F10004203C35DA98
:1005C0000C341BDC04F11404C4F1200500FA05F31B
:1005D00020FA04F001FA05F240EA020001F00042BC
:1005E00021F0004110EBD37021FA04F642EB060132
:1005F0005EEA430E08BF20EAD37070BDC4F10C045C
:10060000C4F1200500FA04F320FA05F001FA04F21F
:1006100040EA020001F0004110EBD37041F100010B
:100620005EEA430E08BF20EAD37070BDC4F1200516
:1006300000FA05F24EEA020E20FA04F301FA05F27E
:1006400043EA020321FA04F001F0004121FA04F226
:1006500020EA020000EBD3705EEA430E08BF20EAF6
:10066000D37070BD94F0000F0FD101F00046400030
:1006700041EB010111F4801F08BF013CF7D041EAB2
:10068000060195F0000F18BF704703F000465200B6
:1006900043EB030313F4801F08BF013DF7D043EA87
:1006A0000603704794EA0C0F0CEA135518BF95EA3D
:1006B0000C0F0CD050EA410618BF52EA4306D1D1C4
:1006C00081EA030101F000414FF0000070BD50EAE3
:1006D000410606BF1046194652EA430619D094EA6D
:1006E0000C0F02D150EA013613D195EA0C0F05D157
:1006F00052EA03361CBF104619460AD181EA0301AB
:1007000001F0004141F0FE4141F470014FF0000062
:1007100070BD41F0FE4141F4780170BD70B54FF0FD
:10072000FF0C4CF4E06C1CEA11541DBF1CEA13557D
:1007300094EA0C0F95EA0C0F00F0A7F8A4EB05045F
:1007400081EA030E52EA03354FEA013100F0888056
:100750004FEA03334FF0805545EA131343EA12631F
:100760004FEA022245EA111545EA10654FEA0026D4
:100770000EF000419D4208BF964244F1FD0404F58D
:10078000407402D25B084FEA3202B61A65EB0305E9
:100790005B084FEA32024FF480104FF4002CB6EBA6
:1007A000020E75EB030E22BFB61A754640EA0C0026
:1007B0005B084FEA3202B6EB020E75EB030E22BF66
:1007C000B61A754640EA5C005B084FEA3202B6EBA7
:1007D000020E75EB030E22BFB61A754640EA9C0066
:1007E0005B084FEA3202B6EB020E75EB030E22BF36
:1007F000B61A754640EADC0055EA060E18D04FEAF4
:10080000051545EA16754FEA06164FEAC30343EA93
:1008100052734FEAC2025FEA1C1CC0D111F4801F60
:100820000BD141EA00014FF000004FF0004CB6E759
:1008300011F4801F04BF01430020B4F1FD0C88BFF8
:10084000BCF5E06F3FF6AFAEB5EB030C04BFB6EB03
:10085000020C5FEA500C50F1000041EB045170BDF6
:100860000EF0004E4EEA113114EB5C04C2BFD4EB23
:100870000C0541EA045170BD41F480114FF0000EA7
:10088000013C90E645EA060E8DE60CEA135594EA23
:100890000C0F08BF95EA0C0F3FF43BAF94EA0C0F26
:1008A0000AD150EA01347FF434AF95EA0C0F7FF49B
:1008B00025AF104619462CE795EA0C0F06D152EAEF
:1008C00003353FF4FDAE1046194622E750EA4106D3
:1008D00018BF52EA43067FF4C5AE50EA41047FF4E4
:1008E0000DAF52EA43057FF4EBAE12E74FEA410247
:1008F00012F5001215D211D56FF47873B3EB625272
:1009000012D94FEAC12343F0004343EA505311F098
:10091000004F23FA02F018BF404270474FF000002A
:10092000704750EA013005D111F0004008BF6FF068
:10093000004070474FF00000704700BF4FEA41028F
:10094000B2F1E04324BFB3F5001CDCF1FE5C0DD92D
:1009500001F0004C4FEAC0024CEA5070B2F1004F77
:1009600040EB830008BF20F00100704711F0804F7A
:1009700021D113F13872BCBF01F00040704741F43F
:1009800080114FEA5252C2F11802C2F1200C10FA43
:100990000CF320FA02F018BF40F001004FEAC12327
:1009A0004FEAD32303FA0CFC40EA0C0023FA02F3CB
:1009B0004FEA4303CCE77FEA625307D150EA0133A1
:1009C0001EBF4FF0FE4040F44000704701F0004071
:1009D00040F0FE4040F40000704700BF80F000404F
:1009E00002E000BF81F0004142001FBF5FEA410307
:1009F00092EA030F7FEA226C7FEA236C6AD04FEA07
:100A00001262D2EB1363C1BFD2184140484041404B
:100A1000B8BF5B42192B88BF704710F0004F40F4FD
:100A2000000020F07F4018BF404211F0004F41F419
:100A3000000121F07F4118BF494292EA030F3FD0E5
:100A4000A2F1010241FA03FC10EB0C00C3F12003F8
:100A500001FA03F100F0004302D5494260EB400087
:100A6000B0F5000F13D3B0F1807F06D340084FEAF2
:100A7000310102F10102FE2A51D2B1F1004F40EBE7
:100A8000C25008BF20F0010040EA0300704749004F
:100A900040EB0000013A28BFB0F5000FEDD2B0FAEC
:100AA00080FCACF1080CB2EB0C0200FA0CF0AABF0F
:100AB00000EBC25052421843BCBFD04018437047AD
:100AC00092F0000F81F4000106BF80F400000132B3
:100AD000013BB5E74FEA41037FEA226C18BF7FEA8A
:100AE000236C21D092EA030F04D092F0000F08BFCC
:100AF0000846704790EA010F1CBF0020704712F0B3
:100B00007F4F04D1400028BF40F00040704712F1F1
:100B100000723CBF00F50000704700F0004343F056
:100B2000FE4040F4000070477FEA226216BF08468C
:100B30007FEA23630146420206BF5FEA412390EA4F
:100B4000010F40F4800070474FF0000304E000BF45
:100B500010F0004348BF40425FEA000C08BF7047F6
:100B600043F0964301464FF000001CE050EA0102BA
:100B700008BF70474FF000030AE000BF50EA0102CF
:100B800008BF704711F0004302D5404261EB4101BC
:100B90005FEA010C02BF84460146002043F0B643E1
:100BA00008BFA3F18053A3F50003BCFA8CF2083A06
:100BB000A3EBC25310DB01FA02FC634400FA02FC0F
:100BC000C2F12002BCF1004F20FA02F243EB020016
:100BD00008BF20F00100704702F1200201FA02FC78
:100BE000C2F1200250EA4C0021FA02F243EB02006B
:100BF00008BF20EADC7070474FF0FF0C1CEAD052AF
:100C00001EBF1CEAD15392EA0C0F93EA0C0F6FD06F
:100C10001A4480EA010C400218BF5FEA41211ED04D
:100C20004FF0006343EA501043EA5111A0FB013139
:100C30000CF00040B1F5000F3EBF490041EAD3710E
:100C40005B0040EA010062F17F02FD2A1DD8B3F18A
:100C5000004F40EBC25008BF20F00100704790F0F9
:100C6000000F0CF0004C08BF49024CEA502040EA4B
:100C700051207F3AC2BFD2F1FF0340EAC250704711
:100C800040F400004FF00003013A5DDC12F1190F4F
:100C9000DCBF00F000407047C2F10002410021FAC1
:100CA00002F1C2F1200200FA02FC5FEA310040F1D9
:100CB000000053EA4C0308BF20EADC70704792F052
:100CC000000F00F0004C02BF400010F4000F013A8A
:100CD000F9D040EA0C0093F0000F01F0004C02BF85
:100CE000490011F4000F013BF9D041EA0C018FE7F4
:100CF0000CEAD15392EA0C0F18BF93EA0C0F0AD0FA
:100D000030F0004C18BF31F0004CD8D180EA01001F
:100D100000F00040704790F0000F17BF90F0004FB8
:100D2000084691F0000F91F0004F14D092EA0C0F9A
:100D300001D142020FD193EA0C0F03D14B0218BF2D
:100D4000084608D180EA010000F0004040F0FE4073
:100D500040F40000704740F0FE4040F4400070470F
:100D60004FF0FF0C1CEAD0521EBF1CEAD15392EA8E
:100D70000C0F93EA0C0F69D0A2EB030280EA010C7E
:100D800049024FEA402037D04FF0805343EA111117
:100D900043EA10130CF000408B4238BF5B0042F175
:100DA0007D024FF4000C8B4224BF5B1A40EA0C001A
:100DB000B3EB510F24BFA3EB510340EA5C00B3EB4C
:100DC000910F24BFA3EB910340EA9C00B3EBD10F3A
:100DD00024BFA3EBD10340EADC001B0118BF5FEA8C
:100DE0001C1CE0D1FD2A3FF650AF8B4240EBC250B5
:100DF00008BF20F0010070470CF0004C4CEA502076
:100E00007F32C2BFD2F1FF0340EAC250704740F4C4
:100E100000004FF00003013A37E792F0000F00F0B6
:100E2000004C02BF400010F4000F013AF9D040EA34
:100E30000C0093F0000F01F0004C02BF490011F4C8
:100E4000000F013BF9D041EA0C0195E70CEAD153C0
:100E500092EA0C0F08D142027FF47DAF93EA0C0FA7
:100E60007FF470AF084676E793EA0C0F04D14B028B
:100E70003FF44CAF08466EE730F0004C18BF31F03D
:100E8000004CCAD130F000427FF45CAF31F0004337
:100E90007FF43CAF5FE700BF4FF0FF3C06E000BFD0
:100EA0004FF0010C02E000BF4FF0010C4DF804CDF3
:100EB0004FEA40024FEA41037FEA226C18BF7FEA03
:100EC000236C11D001B052EA530C18BF90EA010F05
:100ED00058BFB2EB030088BFC81738BF6FEAE17094
:100EE00018BF40F0010070477FEA226C02D15FEA30
:100EF000402C05D17FEA236CE4D15FEA412CE1D09C
:100F00005DF8040B704700BF844608466146FFE762
:100F10000FB5FFF7C9FF002848BF10F1000F0FBD44
:100F20004DF808EDFFF7F4FF0CBF012000205DF83D
:100F300008FB00BF4DF808EDFFF7EAFF34BF0120C2
:100F400000205DF808FB00BF4DF808EDFFF7E0FF5B
:100F500094BF012000205DF808FB00BF4DF808EDAC
:100F6000FFF7D2FF94BF012000205DF808FB00BF0F
:100F70004DF808EDFFF7C8FF34BF012000205DF8F1
:100F800008FB00BF4FEA4002B2F1FE4F0FD34FF013
:100F90009E03B3EB12620DD94FEA002343F00043E6
:100FA00010F0004F23FA02F018BF404270474FF094
:100FB0000000704712F1610F01D1420205D110F01B
:100FC000004008BF6FF0004070474FF000007047CE
:100FD00042000ED2B2F1FE4F0BD34FF09E03B3EBA3
:100FE000126209D44FEA002343F0004323FA02F0CF
:100FF00070474FF00000704712F1610F01D14202BB
:1010000002D14FF0FF3070474FF00000704700BF33
:101010007BB972B90029BEBF00204FF0004106E045
:1010200008BF00281CBF6FF000414FF0FF3000F0F8
:10103000A9B9ADF1080C6DE904CE002909DB002B3C
:101040001ADB00F035F8DDF804E0DDE9022304B036
:101050007047404261EB4101002B1BDB00F028F898
:10106000DDF804E0DDE9022304B0404261EB410118
:10107000524263EB43037047524263EB430300F079
:1010800017F8DDF804E0DDE9022304B0404261EB2B
:1010900041017047524263EB430300F009F8DDF869
:1010A00004E0DDE9022304B0524263EB43037047DE
:1010B0002DE9F047089E0D4604468846002B4DD189
:1010C0008A42944668D9B2FA82F252B101FA02F326
:1010D000C2F1200120FA01F10CFA02FC41EA0308F6
:1010E00094404FEA1C41B8FBF1F71FFA8CFE01FB5C
:1010F000178807FB0EF0230C43EA084398420AD9ED
:101100001CEB030307F1FF3580F01E81984240F28B
:101110001B81023F63441B1AB3FBF1F001FB103348
:1011200000FB0EFEA4B244EA0344A6450AD91CEB18
:10113000040400F1FF3380F00981A64540F20681E6
:10114000644402380021A4EB0E0440EA07401EB1BB
:101150000023D440C6E90043BDE8F0878B4208D99C
:10116000002E00F0EE800021C6E900050846BDE82B
:10117000F087B3FA83F100294AD1AB4202D382420D
:1011800000F2FC80841A65EB030301209846002ED0
:10119000E2D0C6E90048DFE702B9FFDEB2FA82F228
:1011A000002A40F09180A1EB0C0001214FEA1C477E
:1011B0001FFA8CFEB0FBF7F307FB1300250C45EA82
:1011C00000450EFB03F0A84208D91CEB050503F10E
:1011D000FF3802D2A84200F2CE8043462D1AB5FB5A
:1011E000F7F007FB10550EFB00FEA4B244EA0544DD
:1011F000A64508D91CEB040400F1FF3502D2A64530
:1012000000F2B6802846A4EB0E0440EA03409EE7B5
:10121000C1F120078B4022FA07FC4CEA030C25FAA7
:1012200007FA4FEA1C49BAFBF9F820FA07F309FB61
:1012300018AA8D401FFA8CFE1D4300FA01F308FB2B
:101240000EF02C0C44EA0A44A04202FA01F20BD937
:101250001CEB040408F1FF3A80F08880A04240F2C1
:101260008580A8F102086444241AB4FBF9F009FB54
:10127000104400FB0EFEADB245EA0444A64508D971
:101280001CEB040400F1FF356CD2A6456AD9023884
:10129000644440EA0840A0FB0295A4EB0E04AC4273
:1012A000C846AE4656D353D0002E69D0B3EB0802E1
:1012B00064EB0E0422FA01F304FA07F71F43CC4053
:1012C000C6E90074002147E70CFA02FCC2F12001D4
:1012D00025FA01F34FEA1C4720FA01F195400D432E
:1012E000B3FBF7F107FB11331FFA8CFE280C40EA21
:1012F000034001FB0EF3834204FA02F408D91CEB0D
:10130000000001F1FF382FD283422DD90239604409
:10131000C01AB0FBF7F307FB1300ADB245EA004576
:1013200003FB0EF0A84208D91CEB050503F1FF38BA
:1013300016D2A84214D9023B6544281A43EA014157
:1013400038E73146304607E72F46E4E61846F9E627
:101350004B45A9D2B9EB020865EB0C0E0138A3E7A7
:101360004346EAE7284694E74146D1E7D0467BE783
:101370006444023847E7023B65442FE7084606E726
:101380003146E9E6704700BF034613F8012B002AF7
:10139000FBD1181A0138704710F8012B11F8013BE6
:1013A000012A28BF9A42F7D0D01A70474FF0FF3C6D
:1013B00006E000BF4FF0010C02E000BF4FF0010C4F
:1013C0004DF804CD4FEA410C7FEA6C5C4FEA430CC8
:1013D00018BF7FEA6C5C1BD001B050EA410C0CBF17
:1013E00052EA430C91EA030F02BF90EA020F002079
:1013F000704710F1000F91EA030F58BF994208BFE0
:1014000090422CBFD8176FEAE37040F0010070479C
:101410004FEA410C7FEA6C5C02D150EA013C07D1F3
:101420004FEA430C7FEA6C5CD6D152EA033CD3D03E
:101430005DF8040B704700BF8446104662468C4638
:101440001946634600E000BF01B5FFF7B7FF00286B
:1014500048BF10F1000F01BD4DF808EDFFF7F4FF94
:101460000CBF012000205DF808FB00BF4DF808ED1F
:10147000FFF7EAFF34BF012000205DF808FB00BF42
:101480004DF808EDFFF7E0FF94BF012000205DF864
:1014900008FB00BF4DF808EDFFF7CEFF94BF012019
:1014A00000205DF808FB00BF4DF808EDFFF7C4FF12
:1014B00034BF012000205DF808FB00BF4FEA410C5B
:1014C0007FEA6C5C02D150EA013C0AD14FEA430C3E
:1014D0007FEA6C5C02D152EA033C02D14FF000007B
:1014E00070474FF00100704710B5044610200AF015
:1014F000E9FB206048B1084B22220849022006F08F
:10150000FDFD236800221A7010BD054B1E22034901
:10151000022006F0F3FDF7E77C10010844100108F3
:1015200024100108F0B589B040F2931008F01CFFB8
:10153000254C204608F05AFC244809F0B1FB05462A
:101540000090E668224809F009F92946B0470646A6
:101550000190A7691F4809F01DF83146B8470646B3
:101560000290E7681C4809F007FD1C4909F032FEAB
:101570003146B84706460390E768194809F064FB0E
:101580003146B84706460490E768164809F0D2FA93
:101590003146B84706460590E768134809F0ACFEA7
:1015A0003146B84706460690E768104809F01AFD2C
:1015B0003146B847024607902946204608F0D8FD34
:1015C000204609B0F0BD00BF100400203C12010805
:1015D000EC1101089A99993E4C1201084412010835
:1015E000381201081C120108741201086C1201085B
:1015F0002DE9F041002434E0650004EB44031B4E68
:1016000006EB8306D6F83C07FEF706FF0022184BD0
:10161000FEF75AFF0EF016FF2544FFF767F9154F46
:101620007855D6F84007FEF7F7FE0022104BFEF77C
:101630004BFF0EF007FF05F10108FFF757F907F818
:101640000800D6F84407FEF7E7FE0022084BFEF735
:101650003BFF0EF0F7FE0235FFF748F978550134ED
:10166000A4B2952CC8D9BDE8F08100BF6C1E002043
:10167000000030409804002030B587B000258DF878
:10168000175080238DF81630FFF7B2FF524B1868C1
:1016900008F064FE8DF8175021E09DF81740E4B281
:1016A0009DF81730DBB24D4AD056FEF7A3FE48A393
:1016B000D3E90023FFF732F80022494BFEF704FF7D
:1016C000CDE902010094474B3D224749022006F034
:1016D00015FD9DF817300133DBB28DF817309DF8FA
:1016E0001730DBB20C2B14D89DF81730DBB23B4A15
:1016F000D2569DF816305BB29A42CEDB9DF8173079
:10170000DBB2364AD3568DF816309DF817506DB2BD
:10171000C3E79DF816305BB23E2B13DD0C2D14D0C1
:10172000324B46223049022006F0E8FC6B1C0D2BA0
:1017300011D8DFE803F00D191D2125292D31353988
:101740003D4145494FF0FF35EAE74FF0FF35E7E708
:1017500027480BF08BF927480BF06AFA0A200BF0A8
:10176000E5F9284607B030BD23480BF07FF9F2E7D2
:1017700022480BF07BF9EEE721480BF077F9EAE716
:1017800020480BF073F9E6E71F480BF06FF9E2E72A
:101790001E480BF06BF9DEE71D480BF067F9DAE73E
:1017A0001C480BF063F9D6E71B480BF05FF9D2E752
:1017B0001A480BF05BF9CEE719480BF057F9CAE766
:1017C00018480BF053F9C6E717480BF04FF9C2E77A
:1017D0000000000000C05F400C0400205C060020F8
:1017E000000059409C100108B4100108E8100108DD
:1017F00008110108A8110108181101082411010895
:10180000301101083C110108481101085411010868
:10181000601101086C11010878110108801101089C
:101820008C110108941101089C11010808B54FF4AE
:10183000C051044808F02EFAFFF774FE024B1860FE
:1018400008BD00BF6C0600200C04002008B517205E
:1018500001F0BAF8024B012283F8282008BD00BF2E
:101860006C1E002008B5172001F0BCF8024B0222C4
:1018700083F8282008BD00BF6C1E00200000000077
:101880002DE9F84F0446D0F800A0D0F80880414672
:101890005046FFF7B1F90546D4F80490D4F80CB0DF
:1018A00059464846FFF7A8F901462846FFF79AF837
:1018B0000546FEF7B1FD06460F466F492846FFF77D
:1018C00039FB20B96D492846FFF752FB90B33046EB
:1018D00039460EF003FE0546C0EBC0784FEA4808D3
:1018E000D4F804902068FEF797FD06460F46484658
:1018F000FEF792FD32463B460EF01AFE06460F46B4
:101900004046FEF777FD32463B46FEF7DDFDFFF72A
:1019100015F85B4C20602846FEF76CFD54A3D3E914
:101920000023FEF7D1FDFFF709F860600023A360F4
:10193000BDE8F88F41464046FFF756F80546014698
:101940005846FFF759F9064651465046FFF74CF8FE
:1019500001464846FFF750F901463046FFF744F884
:1019600082464FF040414846FFF746F90146484657
:10197000FFF742F9064629464046FFF73DF9014682
:101980003046FFF72FF84FF07E51FFF72DF8FEF7A6
:1019900043FD06460F465046FEF73EFD32463B46A7
:1019A0000EF0C6FDFEF7CAFF354DA8604FF040416E
:1019B0006068FFF721F9E168FFF71EF90646206825
:1019C0000146FFF711F8A168FFF716F90146304606
:1019D000FFF70AF8FEF720FD0EF082FDFEF7AEFFDE
:1019E0006860D4F80490D4F8088041464846FFF770
:1019F00003F982462668E76839463046FFF7FCF867
:101A000001465046FEF7F0FF0146FEF7EDFF0446A3
:101A100031463046FFF7F0F8064649464846FFF79C
:101A2000EBF801463046FEF7DFFF064641464046EA
:101A3000FFF7E2F801463046FEF7D4FF0646394686
:101A40003846FFF7D9F801463046FEF7CBFFFEF7E0
:101A5000E3FC06460F462046FEF7DEFC32463B46D8
:101A60000EF066FDFEF76AFF286061E7AFF30080C5
:101A7000E0864454FB21F93F0080FFBE0080FF3E1A
:101A80006C1E00202DE9F04788B03B4E3768DFF828
:101A9000ECA0CAF800703A4D286830603949FFF769
:101AA000ABF8044638493846FFF7A6F80146204609
:101AB000FEF79AFF0746354C3549E068FFF79CF87A
:101AC00001463846FEF790FF07462860D6F8049096
:101AD000CAF80490686870602A49FFF78DF880465C
:101AE00029494846FFF788F801464046FEF77CFF43
:101AF000804627492069FFF77FF801464046FEF7F8
:101B000073FF80466860D6F80890CAF80890A86805
:101B1000B0601C49FFF770F806461B494846FFF7BE
:101B20006BF801463046FEF75FFF064618496069CC
:101B3000FFF762F801463046FEF756FFA8600190B5
:101B4000CDF800803B46226AE169A06904F0C8F83C
:101B500008B1FFF795FE0A4B1A6802925A68039281
:101B60009B680493094BDA6805921A6906925B69CF
:101B7000079308B0BDE8F087C82C0020BC2C0020DB
:101B8000D42C00205AF8F63F5D896EBF6C1E0020F1
:101B9000D5A9183B000000002DE9F04F89B0804620
:101BA00006AB06223B21682000F083FB9DF818302D
:101BB0009DF8190000EB032080B2DFF84CA1BAF8C1
:101BC0000030C01A00B2ADF804009DF81A309DF83C
:101BD0001B5005EB0325ADB2BAF80230ED1A2DB259
:101BE000ADF806509DF81C309DF81D4004EB032411
:101BF000A4B2BAF80430E41A24B2ADF80840FEF7F3
:101C0000F9FB0022414BFEF75FFCFEF797FE83468F
:101C10003F4E08EB480706EB870778632846FEF738
:101C2000E9FB0022394BFEF74FFCFEF787FE054625
:101C3000B8632046FEF7DEFB0022344BFEF744FC7F
:101C4000FEF77CFEF863C6F80CB03561706104AB3A
:101C500006224321682000F02CFB9DF810309DF8EF
:101C6000110000EB032080B2BAF80030C01A00B2B5
:101C7000ADF804009DF812309DF8135005EB0325D4
:101C8000ADB2BAF80230ED1A2DB2ADF806509DF89B
:101C900014309DF8154004EB0324A4B2BAF80430C4
:101CA000E41A24B2ADF80840FEF7A4FB14A3D3E96C
:101CB0000023FEF733FDFEF741FE8246C7F83C07DE
:101CC0002846FEF797FB0EA3D3E90023FEF726FD77
:101CD000FEF734FE0546C7F840072046FEF78AFBAC
:101CE00007A3D3E90023FEF719FDFEF727FEC7F887
:101CF0004407C6F818A0F561306209B0BDE8F08F5E
:101D00002121CA175C75B040B02C00200000203F94
:101D10006C1E002008B500F05DF9044B044ADA623D
:101D2000044A1A63044A5A6208BD00BF6C1E0020B0
:101D30004D18000865180008851A000810B50446FB
:101D4000012802D0202C07D010BD0E4BB9220E491D
:101D5000022006F0D3F9F5E70C4C2078FFF71CFFC2
:101D600023780133DBB22370952BEDD9002222704A
:101D7000074BC6220449012006F0C0F9054B1B6B36
:101D80009847E1E7A8340108BC340108E02C0020A2
:101D9000F03401086C1E002010B5044C2368DB6889
:101DA0009847236800221A7010BD00BFE42C002061
:101DB00008B500F0B3F9024B1B6800221A7008BD89
:101DC000E42C002008B500F09FF9024B1B680122AB
:101DD0001A7008BDE42C002038B5042806D8DFE8C6
:101DE00000F0030A460D3200FFF7E2FF214B1B68AB
:101DF00000221A7038BDFFF7E5FFF7E70024042C36
:101E0000F4D81C4D2B689B689847642000F07EFD39
:101E10002B68DB689847642000F078FD0134E4B259
:101E2000EDE7144D2B689B689847322000F06EFD5B
:101E30002B68DB689847322000F068FD0134E4B27B
:101E4000092CEED9D2E70024FAE70A4D2B689B68EB
:101E50009847FA2000F05AFD2B68DB689847FA2073
:101E600000F054FD0134E4B2032CEED9BEE70024A7
:101E7000FAE700BFE42C002010B582B0044614201D
:101E800009F020FF2060B0B10F4B76220F490220ED
:101E900006F034F9236800221A7023680C4A5A604D
:101EA00023680C4A9A6023680B4ADA6023680B4A5D
:101EB0001A6102B010BD14230093094B722203492A
:101EC000022006F01BF9F4E754350108203501081B
:101ED000991D0008C51D0008B11D0008D91D000886
:101EE0000035010890F90030002B01DD002070471B
:101EF0000FDB90F90130002B01DD012070470ADB78
:101F000090F90230002B08DC01DB07207047062027
:101F1000704704207047052070470220704738B58D
:101F20000546FFF7DFFF0446E81CFFF7DBFF44EA46
:101F3000C00424B2A81DFFF7D5FF44EA801080B288
:101F400038BD000010B588B002A905A805F0F2FA66
:101F5000072801D008B010BD01A804F0B5FE019C0F
:101F60000598FEF7F5FD2146FEF746FEFFF70AF855
:101F700005900698FEF7ECFD2146FEF73DFEFFF7C3
:101F800001F806900798FEF7E3FD2146FEF734FEC0
:101F9000FEF7F8FF079005A805F002FC0DF102001E
:101FA00004F0B8FEBDF80220029B02FB03F302938B
:101FB000039B02FB03F30393049B02FB03F30493D1
:101FC00002A805F075FC02480AF032FEC2E700BF25
:101FD0007035010800B583B0172000F003FD00F054
:101FE00037F9002301938DF800306B4601227521EB
:101FF000682000F05EF99DF80030682B06D10020C3
:1020000005F008F978B103B05DF804FBBFF34F8F1A
:102010003049CA6802F4E0622F4B1343CB60BFF330
:102020004F8F00BFFDE7782005F080F870B378206F
:1020300004F09EFE70B3642005F028F870B305F03C
:10204000FDFA78B32548FFF76AFF05F003FB68B394
:1020500040F2731005F0C4FE60B3642005F0A2FCEA
:1020600060B3FFF76FFF012005F01AFA50B301A823
:1020700005F096FB50B3042004F062FD4FF4FA70B3
:1020800004F0F0FC16480AF0D3FDBCE715480AF04E
:10209000CFFDCCE714480AF0CBFDCCE713480AF09B
:1020A000C7FDCCE712480AF0C3FDCBE711480AF0A0
:1020B000BFFDCDE710480AF0BBFDCEE70F480AF0A0
:1020C000B7FDCEE70E480AF0B3FDD0E70D480AF0A1
:1020D000AFFDD0E700ED00E00400FA0500000020AD
:1020E000E436010894350108B4350108D8350108F3
:1020F00000360108343601085C36010880360108D4
:10210000A4360108C836010808B501220221024898
:1021100000F017FE08BD00BF0008014008B500220E
:102120000221024800F00DFE08BD00BF000801407A
:1021300008B58021014800F0FDFD08BD000C0140FC
:1021400082B000EBC00020F06040019000BF019B16
:102150005A1E0192002BF9D102B0704708B5024611
:102160008021034800F0EDFD0520FFF7E9FF08BDE1
:10217000000C014008B502464021034800F0E1FD93
:102180000520FFF7DDFF08BD000C014008B5012068
:10219000FFF7E4FF0120FFF7EDFF0020FFF7DEFF70
:1021A0000020FFF7E7FF08BD38B5054600240BE027
:1021B000802020412840FFF7D1FF0120FFF7DAFF00
:1021C0000020FFF7D7FF0134072CF1DD38BD10B533
:1021D0000120FFF7C3FF0120FFF7CCFFFFF7A8FFA7
:1021E00004460020FFF7C6FF204610BD08B50020BA
:1021F000FFF7B4FF0120FFF7BDFF0120FFF7AEFF9F
:1022000008BD38B50120FFF7A9FF00252C4604E0E2
:102210000020FFF7AFFF0134E4B2072C0BD80120F8
:10222000FFF7A8FFFFF784FF0128F1D180232341A6
:102230001D43EDB2ECE7284638BD08B5FFF78EFF29
:102240000120FFF797FF0020FFF794FF08BD000073
:1022500010B5064C01228021204600F072FD0122BB
:102260004021204600F06DFD10BD00BF000C014074
:10227000F8B504460F4615461E46FFF787FF600077
:1022800000F0FE00FFF790FFFFF7A1FF3846FFF7D1
:102290008BFFFFF79CFF002405E0305DFFF784FF14
:1022A000FFF795FF0134A542F7DCFFF79FFF002001
:1022B000F8BDF8B506460F4614461D46FFF766FF03
:1022C0007600F6B23046FFF76FFFFFF780FF384623
:1022D000FFF76AFFFFF77BFFFFF758FF701CC0B2E4
:1022E000FFF762FFFFF773FF08E0FFF78AFF287030
:1022F0000120FFF7A2FF0135013CE4B244B1012CFB
:10230000F3D0FFF77EFF28700020FFF796FFF2E77B
:10231000FFF76CFF0020F8BD2DE9F04188B00024E4
:102320000494059406940794304B9A6942F0200275
:102330009A619A6902F020020192019A9A6942F028
:1023400004029A619A6902F004020292029A9A695E
:1023500042F008029A619B6903F008030393039B10
:10236000DFF88C8022460221404600F0EAFC214F33
:102370002246C021384600F0E4FC012504951E4B9E
:102380000593069504A9404600F0C2FB0226049678
:1023900005950695079604A9404600F0B9FB202351
:1023A0000493164B0593069404A9384600F0B0FB3D
:1023B000C0230493112305930694079604A9384675
:1023C00000F0A6FB22463146062000F0C5FA0620A2
:1023D00000F0FAFA22462946172000F0BDFA17202D
:1023E00000F0F2FA08B0BDE8F08100BF0010024032
:1023F00000080140000C01400000311000002110D5
:1024000072B6FEE700B595B0282200210DEB020060
:1024100009F086FC0023059306930793089309931C
:10242000019302930393049301220A924FF48033A1
:102430000B930E920222119212934FF4E013139316
:102440000AA801F0BDFCC0B90F2305930221069133
:10245000002307934FF480620892099305A801F0C6
:10246000E1FE60B9102301930023049301A801F059
:10247000B5FF30B915B05DF804FBFFF7C1FFFFF7FA
:10248000BFFFFFF7BDFF000008B500F01BFAFFF724
:10249000B9FFFFF741FF00F05BF908F035FF00F0EE
:1024A0003FF8FFF737FC1948FFF7E6FC1848FFF73D
:1024B0001BF8FFF7BBF9022005F014FE002005F021
:1024C00017FE05F06FFE03E0124B002283F8282070
:1024D000104B93F82830002BF6D10E4BDB6A98474F
:1024E0000A4B1B68DB6898470A4B93F82830022B8D
:1024F000FAD1094B7B220949012005F0FFFD034B6E
:102500001B689B689847FFF7B7F8DDE7E42C0020CD
:10251000080400206C1E0020F83601080837010866
:1025200008B50E480E4B03604FF4827343600023DE
:102530008360C360036143614FF400728261C361D1
:10254000036243624FF4005383620723C36201F0C6
:10255000D1FF00B908BDFFF753FFFBE7E82C0020CF
:102560000038004030B587B00023029303930493F2
:10257000059302681B4B9A4201D007B030BD03F5AA
:10258000EC33DA6942F48042DA61DA6902F48042BB
:102590000092009A9A6942F008029A619B6903F0DE
:1025A00008030193019B4FF43043029302230393EA
:1025B000032305930C4D02A9284600F0A9FA4FF415
:1025C0008043029300240394049402A9284600F057
:1025D0009FFA22462146242000F0BEF9242000F074
:1025E000F3F9CAE700380040000C014082B00E4BFE
:1025F0009A6942F001029A619A6902F0010200921E
:10260000009ADA6942F08052DA61DB6903F08053A4
:102610000193019B054A536823F0E06343F0007384
:10262000536002B0704700BF00100240000001403C
:10263000FEE7FEE7FEE7FEE7FEE7704770477047FC
:1026400008B500F051F908BD08B5012000F080FB85
:1026500008BD000008B5024801F06EF908BD00BFD2
:102660002834002008B5202000F072FB08BD0000CF
:1026700008B5024801F0A0FF08BD00BFE82C00200B
:1026800008B5024802F034FA08BD00BF482D00200A
:102690000120704708B508F0FDFF162303604FF0D6
:1026A000FF3008BD08B54FF0FF31FFF7F3FFFEE73D
:1026B00070B50C461646002506E0AFF300802146B3
:1026C00001F8010B01350C46B542F6DB304670BD12
:1026D00070B50C461646002504E014F8010B00F016
:1026E00095F80135B542F8DB304670BD4FF0FF304C
:1026F00070474FF400534B60002070470120704733
:102700000020704710B503460C4A0D490D4800687B
:1027100040B10C4800680344521A934206D8094A53
:10272000136010BD0748084C0460F2E708F0B2FFE0
:102730000C2303604FF0FF30F3E700BF0050002090
:1027400000020000442D0020503700207047000098
:1027500008B50A480A4B03604FF461234360002325
:102760008360C36003610C2242618361C36102F034
:102770009CF800B908BDFFF743FEFBE7482D002099
:102780000038014030B587B00023029303930493CF
:10279000059302681B4B9A4201D007B030BD03F588
:1027A00058439A6942F480429A619A6902F48042DD
:1027B0000092009A9A6942F004029A619B6903F0C0
:1027C00004030193019B4FF40073029302230393CC
:1027D000032305930C4D02A9284600F099F94FF404
:1027E0008063029300240394049402A9284600F015
:1027F0008FF922460121252000F0AEF8252000F0B7
:10280000E3F8CAE7003801400008014000B583B092
:1028100001904FF6FF73012201A9034802F075F8F9
:10282000019803B05DF804FB482D0020FFF78EFFF0
:102830000B480C490C4A002302E0D458C45004331E
:10284000C4188C42F9D3094A094C002301E01360F3
:102850000432A242FBD309F0FBF8FFF715FE7047E4
:1028600000000020EC030020905B0108EC03002036
:102870004C370020FEE7000010B504460E4B1878D8
:102880004FF47A73B3FBF0F30C4A1068B0FBF3F02B
:1028900000F0BAF868B90F2C01D901200AE0002233
:1028A00021464FF0FF3000F057F8054B1C60002028
:1028B00000E0012010BD00BF140000201000002027
:1028C0001800002008B5074A136843F0100313608E
:1028D000032000F02FF80F20FFF7CEFFFFF786FE52
:1028E000002008BD00200240034A1168034B1B78FA
:1028F0000B441360704700BF902D0020140000208F
:10290000014B1868704700BF902D002038B5044671
:10291000FFF7F6FF0546B4F1FF3F02D0044B1B78EA
:102920001C44FFF7EDFF401BA042FAD338BD00BFA7
:1029300014000020074AD36823F4E0631B041B0C37
:10294000000200F4E060034343F0BF6343F400334C
:10295000D360704700ED00E000B5194BDB68C3F3AE
:102960000223C3F1070CBCF1040F28BF4FF0040C85
:1029700003F1040EBEF1060F18D9033B4FF0FF3EE2
:102980000EFA0CFC21EA0C0199400EFA03F322EA3C
:102990000303194300280BDB0901C9B200F16040B1
:1029A00000F5614080F800135DF804FB0023E5E7C3
:1029B00000F00F000901C9B2024B1954F4E700BF3F
:1029C00000ED00E014ED00E0002807DB00F01F023E
:1029D000400901239340024A42F82030704700BF6B
:1029E00000E100E000280CDB00F01F024009012399
:1029F00093402030034A42F82030BFF34F8FBFF39B
:102A00006F8F704700E100E00138B0F1807F0BD29A
:102A10004FF0E0235861054AF02182F8231000208E
:102A2000986107221A6170470120704700ED00E0AD
:102A300090F82130DBB2022B06D0042383630023FD
:102A400080F82030012070470268136823F00E03DD
:102A500013600268136823F001031360036CC16BF9
:102A6000012202FA03F34B6080F82120002380F852
:102A7000203018467047000008B590F82130DBB2CE
:102A8000022B03D004238363012008BD026813686E
:102A900023F00E0313600268136823F00103136030
:102AA0000368194A934214D0143293421FD014324F
:102AB00093421ED0143293421ED0143293421ED041
:102AC0001432934202D04FF0807203E04FF4801230
:102AD00000E001220D4B5A60012380F821300023D1
:102AE00080F82030436B6BB198470020CDE710226F
:102AF000F0E74FF48072EDE74FF48052EAE74FF4CD
:102B00008032E7E70020C0E70800024000000240F2
:102B100070B582B00024A446A6E0804DAA4210D031
:102B200007D97F4DAA420CD005F58035AA4208D0BE
:102B300013E0A5F58015AA4203D005F57025AA4239
:102B400007D18A68002A58D0012A51D0436108244D
:102B500003E0A5F58015AA42F3D0BEF1FF0F4ED8D1
:102B60000646BEF1FF0F4CD84FEA8C0233680F25A2
:102B7000954023EA050304FA02F2134333604B68DD
:102B800013F0805F6ED0674B9A6942F001029A6140
:102B90009B6903F001030193019B4FEA9C02951C82
:102BA000614B53F825600CF003039D000F23AB40ED
:102BB00026EA03065D4B984229D003F580639842CC
:102BC00000F08E8003F58063984200F08B8003F55F
:102BD0008063984219D004231AE0CC68BDE7CC6822
:102BE0000434BAE7CC680834B7E7CC680C34B4E7EF
:102BF00003610824B1E70024AFE70424ADE7061D14
:102C0000AFE7ACF108029200B0E7032300E0002335
:102C1000AB4033430232444D45F822304B6813F445
:102C2000801F61D0424A936843EA0E0393604B6869
:102C300013F4001F5ED03E4AD36843EA0E03D3600C
:102C40004B6813F4003F5BD0394A536843EA0E03E4
:102C500053604B6813F4803F58D0354A136843EAF9
:102C60000E0313600CF1010C0A6832FA0CF353D016
:102C7000012303FA0CF302EA030E33EA0202F1D154
:102C80004A68122A3FF649AF122A3FF666AF01A5FD
:102C900055F822F0432B0008DB2B0008E52B000839
:102CA000F72B00085B2B00085B2B00085B2B000850
:102CB0005B2B00085B2B00085B2B00085B2B0008DC
:102CC0005B2B00085B2B00085B2B00085B2B0008CC
:102CD0005B2B00085B2B0008DF2B0008EB2B0008A8
:102CE000012395E7022393E7114A936823EA0E0331
:102CF00093609CE70E4AD36823EA0E03D3609FE7F4
:102D00000B4A536823EA0E035360A2E7084A13688C
:102D100023EA0E031360A5E702B070BD0000221085
:102D20000000311000100240000001400008014086
:102D3000000401408368194201D00120704700203F
:102D400070470AB1016170470904016170470000D2
:102D500008B5054B5B69034200D108BD024B5861C1
:102D6000FEF7ECFFF9E700BF0004014038B512F4AC
:102D7000804F44D00468B4F850309BB291F800C042
:102D800003EBCC03023304EB4303B3F80044C4F376
:102D900009048B69A34228D31B1B8B618B697BB908
:102DA000056835F82C309BB223F4804323F0700380
:102DB00083F4005343F4004343F0800325F82C30A0
:102DC00012F0400F0ED002680D7832F825309BB219
:102DD00023F4E04323F0700343F4004343F0C003C3
:102DE00022F8253024B9204638BD00238B61D5E771
:102DF00023460A894969006802F03CFFF3E704684A
:102E0000B4F850309BB291F800C003EBCC0306330A
:102E100004EB4303B3F80044C4F309048B69A342F1
:102E20002FD31B1B8B618B697BB9056835F82C3060
:102E30009BB223F4804323F0700383F4005343F4E4
:102E4000004343F0800325F82C3012F0400F0FD1DF
:102E5000026891F800C032F82C309BB223F4E043B2
:102E600023F0700343F4004343F0C00322F82C30F6
:102E7000002CB8D023464A894969006802F0FAFE5E
:102E8000B1E700238B61CEE738B500286ED0044649
:102E900090F89132A3B1032384F891320023637137
:102EA000206801F079FF234653F8040B0ECB01F0A4
:102EB00063FF50B1022384F891320125284638BDC2
:102EC00080F8903208F0E4FAE5E70021206801F08C
:102ED0006DFF034608B9024615E0022384F89132DB
:102EE0000125EBE702EB820104EBC10101204874EC
:102EF0000A740020C87408624862013202EB820141
:102F0000C9006050D2B220799042EBD816E003EBB2
:102F1000830204EBC202002182F8511182F8503181
:102F200082F85311C2F86011C2F8641103EB8302F6
:102F300004EBC202C2F868110133DBB29842E6D852
:102F4000234653F8040B0ECB01F032FF054620B1A7
:102F5000022384F891320125B0E700236373012333
:102F600084F89132206802F082FAA7E70125A5E7EC
:102F700038B590F89032012B11D00446012580F825
:102F80009052006801F0FFFE2946204608F081FBC0
:102F9000206802F06AFA002084F8900238BD02200E
:102FA000FCE770B505460C46164612F0400F00F0DF
:102FB0000E810268B2F850309BB2097803EBC1036E
:102FC000023302EB4303B3F80024C2F30902A369FE
:102FD00093424ED99B1AA361A369002B66D16378F3
:102FE000002B49D12B68B3F8502092B2134403EB65
:102FF0000111B1F80434C3F30903A1F80434B1F8A2
:1030000004346FEA43436FEA53439BB2A1F804349C
:103010002B686278002A3CD1B3F8502092B2134456
:10302000227803EB0213B3F80C24C2F30902A3F8CD
:103030000C24B3F80C246FEA42426FEA524292B277
:10304000A3F80C242178284608F056FA16F4804F8D
:1030500041D02A68217832F821309BB223F4E04332
:1030600023F0700343F4404343F0800322F82130FF
:1030700031E00023A361AFE7012BC9D12B68B3F87E
:10308000502092B2134403EB01110023A1F8043441
:10309000BEE7012AD6D1B3F8502092B21344227869
:1030A00003EB02130022A3F80C24CBE716F4804FA5
:1030B0000DD0286830F821309BB223F4E04323F090
:1030C000700343F4404343F0800320F8213094F828
:1030D0002430012B12D02A68217832F821309BB29B
:1030E00023F4E04323F0400383F0300343F4004330
:1030F00043F0800322F82130002070BD636913443F
:103100006361E3691344E361216A2369994224D32B
:10311000C91A21626278002A44D12A68B2F8501094
:1031200089B20A44217802EB0112B2F80414C1F307
:103130000901A2F804143E2B1BD9580913F01F0FE4
:1031400000D10138B2F8041489B2800280B2014380
:1031500041F40041A2F8041426E021B9002384F8C8
:1031600024301346D6E7002384F8243023620B462C
:10317000D0E74BB9B2F804146FEA41416FEA51410C
:1031800089B2A2F804140FE0590813F0010F00D01F
:103190000131B2F8040480B2890289B20143A2F875
:1031A000041401E0012A06D09BB2228961692868D3
:1031B00002F065F98FE72A68B2F8501089B20A4424
:1031C000217802EB011299B2A2F80414ECE702682C
:1031D000B2F850309BB2097803EBC103063302EB1F
:1031E0004303B3F80024C2F30902A36993424FD307
:1031F0009B1AA361A369002B67D16378002B4AD186
:103200002B68B3F8502092B2134403EB0111B1F8CC
:103210000434C3F30903A1F80434B1F804346FEAA9
:1032200043436FEA53439BB2A1F804342B6862789E
:10323000002A3DD1B3F8502092B21344227803EB18
:103240000213B3F80C24C2F30902A3F80C24B3F858
:103250000C246FEA42426FEA524292B2A3F80C2465
:103260002178284608F048F916F4804F7FF433AFF0
:103270002A68217832F821309BB223F4E04323F00E
:10328000700343F4404343F0800322F8213022E7E7
:103290000023A361AEE7012BC8D12B68B3F85020FF
:1032A00092B2134403EB01110023A1F80434BDE7EB
:1032B000012AD5D1B3F8502092B21344227803EBFF
:1032C00002130022A3F80C24CAE716F4804F0DD194
:1032D000286830F821309BB223F4E04323F07003D8
:1032E00043F4404343F0800320F8213094F8243025
:1032F000012B7FF4F0AE636913446361E369134407
:10330000E361216A2369994224D3C91A21622A6898
:103310006178002943D1B2F8501089B20A4421786B
:1033200002EB0112B2F80C14C1F30901A2F80C145B
:103330003E2B1BD9580913F01F0F00D10138B2F8EA
:103340000C1489B2800280B2014341F40041A2F81A
:103350000C1426E021B9002384F824301346D6E764
:103360000023236284F824300B46D0E74BB9B2F82F
:103370000C146FEA41416FEA514189B2A2F80C1472
:103380000FE0590813F0010F00D00131B2F80C041E
:1033900080B2890289B20143A2F80C1401E001292C
:1033A00006D09BB262896169286802F068F892E6EB
:1033B000B2F8501089B20A44217802EB011299B296
:1033C000A2F80C14EDE72DE9F04105462868B0F8A5
:1033D000443013F4004F00F09982B0F84440A3B297
:1033E00014F00F0440F0DE8013F0100F6BD0038850
:1033F0009AB213F4006F40F0998012F4004FE5D0B8
:10340000038823F070031B051B0D43F0800303802A
:103410002868B0F850309BB295F8502103EBC203F6
:10342000063300EB4303B3F80034C3F30903C5F8D4
:103430006C318BB1D5F8641171B1B5F8562102F039
:1034400019FCD5F86C21D5F864311344C5F8643102
:103450000021284608F044F82A68138899B213F42A
:10346000006FB3D101F44051B1F5405FAED0B2F876
:1034700050309BB21A44B2F80C34C3F30903A2F8DB
:103480000C34D5F860313E2B73D9590913F01F0F56
:1034900000D10139B2F80C349BB2890289B20B43D6
:1034A00043F40043A2F80C342A6813889BB223F437
:1034B000804323F0700383F4405343F4004343F00C
:1034C0008003138082E703889BB223F4E14323F057
:1034D00070036FEA43436FEA53439BB203802A6849
:1034E000B2F850309BB2297C03EBC103023302EBEC
:1034F0004303B3F80034C3F30903EB626A6A13446D
:103500006B620021284607F0F7FF6B7B002B3FF42E
:103510005DAFAB6A002B7FF459AF6B7B2A6843F039
:103520008003A2F84C3000236B734FE7B0F85030A3
:103530009BB295F8502103EBC203063300EB430323
:10354000B3F80034C3F30903C5F86C31B5F856215C
:1035500005F5267102F08EFB2A68138823F07003AC
:103560001B051B0D43F080031380284607F0B0FFB6
:103570002CE74BB9B2F80C346FEA43436FEA53437C
:103580009BB2A2F80C348FE7590813F0010F00D05A
:103590000131B2F80C3498B28B029BB20343A2F80B
:1035A0000C3481E730F824309EB213F4004F50D130
:1035B00016F0800F3FF40AAF04EB8401C90010310C
:1035C00029442A6832F824309BB223F4E14323F0E3
:1035D00070036FEA43436FEA53439BB222F82430EF
:1035E00004EB840305EBC303DB7C012B00F0F280CA
:1035F00016F4807F40F085812868B0F850309BB287
:1036000004EB840205EBC202167C03EBC603023313
:1036100000EB4303B3F80034C3F30903621C02EB6D
:10362000820255F832209A4240F25281671C07EB21
:103630008707D21A45F83720621C02EB820255F840
:103640003220002A40F04B813146284607F054FFD3
:10365000BCE630F8243023F070031B051B0D43F04B
:10366000800320F8243004EB8401C90001F5A8711F
:1036700005EB010804EB840305EBC30393F85C310D
:10368000002B42D12868B0F850309BB204EB840282
:1036900005EBC20292F8502103EBC203063300EBA4
:1036A0004303B3F80074C7F3090717BB04EB8403A3
:1036B00005EBC303D3F86C213A44C3F86C21D3F86B
:1036C00064213A44C3F86421D3F868313BB104EB78
:1036D000840305EBC303D3F860319F4275D204EB3A
:1036E000840305EBC30393F85011284607F0F8FE56
:1036F0005EE704EB840105EBC1013B46B1F85621BE
:10370000D1F8641102F0B6FAD0E704EB840305EBBC
:10371000C30393F85331022B35D0296804EB84029C
:1037200005EBC20292F8500131F820309BB223F42D
:10373000E04323F0700343F4004343F0C00321F857
:103740002030286892F8502130F8223013F4804F4E
:1037500020D0B0F850309BB203EBC203023300EB31
:103760004303B3F80074C7F30907002F9ED004EB9E
:10377000840105EBC1013B46B1F85821D1F8641131
:1037800002F078FA92E7324641462846FFF7EEFA11
:1037900007468BE7B0F850309BB203EBC203063309
:1037A00000EB4303B3F80074C7F30907002F3FF49D
:1037B0007DAF04EB840105EBC1013B46B1F85A2112
:1037C000D1F8641102F056FA70E74146286801F01A
:1037D0006AFEEDE6631C03EB8303DB000022EA5084
:1037E00004EB840305EBC3031B7F1BB316F0400FF0
:1037F0003BD004EB840305EBC3035B7C1BBB2B6852
:10380000B3F8502092B2134404EB840205EBC202D9
:10381000127C03EB0213B3F80424C2F30902A3F8E9
:103820000424B3F804246FEA42426FEA524292B28F
:10383000A3F8042404EB840405EBC404217C28468B
:1038400007F05AFEC2E5012BF4D12B68B3F85020E3
:1038500092B2134404EB840205EBC202127C03EB28
:1038600002130022A3F80424E4E72B6804EB84028B
:1038700005EBC202527CD2B9B3F8502092B2134485
:1038800004EB840205EBC202127C03EB0213B3F8D3
:103890000C24C2F30902A3F80C24B3F80C246FEA39
:1038A00042426FEA524292B2A3F80C24C2E7012AC4
:1038B000C0D1B3F8502092B2134404EB840205EB5C
:1038C000C202127C03EB02130022A3F80C24B1E71E
:1038D000621C02EB8202D2000027AF50ACE604EB80
:1038E000840205EBC202566A1E445662013404EBA0
:1038F000840205EBC20254682344536001F0D3FDF7
:1039000064E532462846FFF74CFB5FE50020BDE842
:10391000F08190F89032012B0CD010B504460123B1
:1039200080F890324173006801F099FD002084F81E
:10393000900210BD0220704710B584B004460068A4
:1039400001F097FD10F4004F20D110F4806F21D1C9
:1039500010F4804F2FD110F4005F37D110F4805F46
:103960003ED110F4006F40F0878010F4007F40F0EB
:10397000AE8010F4807F27D02268B2F844309BB22A
:1039800023F480739BB2A2F844301DE02046FFF779
:103990001AFD19E02268B2F844309BB223F4806328
:1039A0009BB2A2F84430204607F0B7FD0021204624
:1039B000FFF7AFFF08E02268B2F844309BB223F46F
:1039C00080439BB2A2F8443004B010BD2268B2F824
:1039D00044309BB223F400539BB2A2F84430F3E787
:1039E0002268B2F840309BB223F004039BB2A2F8E5
:1039F00040302268B2F840309BB223F008039BB2FB
:103A0000A2F84030204607F0ABFD2268B2F84430FF
:103A10009BB223F480539BB2A2F84430D4E72268CF
:103A200032F8231004AA02EB430222F8101C0133DF
:103A3000DBB2072BF3D92268B2F840309BB243F0D7
:103A40000103A2F840302268B2F840309BB223F064
:103A500001039BB2A2F840302368B3F8442012F46B
:103A6000806FF9D0B3F8442092B222F4806292B20F
:103A7000A3F8442000230BE00023DAE7226804A91E
:103A800001EB430131F8101C22F823100133DBB2A3
:103A9000072BF3D92268B2F840309BB243F00803F9
:103AA000A2F840302268B2F844309BB223F400639D
:103AB0009BB2A2F844302268B2F840309BB243F087
:103AC0000403A2F84030204607F03AFD7CE7226864
:103AD000B2F844309BB223F400739BB2A2F8443096
:103AE000204607F014FD6FE710B50446084611F0B4
:103AF000800F26D101F0070C0CEB8C0E4FEACE0E96
:103B00000EF5A87E04EB0E010CEB8C0C04EBCC0C38
:103B10004FF0000E8CF851E100F0070008700A61C8
:103B2000CB70022B1DD094F89032012B1CD00123B6
:103B300084F89032206801F04CF9002084F890025B
:103B400010BD01F0070C0CEB8C01C90010312144B1
:103B50000CEB8C0C04EBCC0C4FF0010E8CF811E04C
:103B6000DAE700230B71DEE70220E9E710B504462F
:103B70000A4611F0800F1FD101F0070000EB80030F
:103B8000DB0003F5A873E11800EB800004EBC00034
:103B9000002380F8513102F007020A7094F8903245
:103BA000012B17D0012384F89032206801F0F6FA37
:103BB000002084F8900210BD01F0070000EB8003A4
:103BC000DB001033E11800EB800004EBC0000123A0
:103BD0004374E0E70220EEE710B501F0070C0CEBB0
:103BE0008C01C90001F5A8710CEB8C0E00EBCE0E18
:103BF000CEF86421CEF868310024CEF86C418EF8FE
:103C000051418EF850C10144006801F04CFC20463F
:103C100010BD38B501F0070C0CEB8C01C900103158
:103C20000CEB8C0E00EBCE0ECEF824200CF1010232
:103C300002EB820440F8343001258EF83450CEF87F
:103C4000303000EBC402002454608EF811508EF81E
:103C500010C00144006801F026FC204638BD38B58C
:103C600001F007050279AA4235D304460B4611F04C
:103C7000800F1ED101EB8101C90001F5A87101443B
:103C800003EB830300EBC303002283F851210123DC
:103C90008B700D7094F89032012B1ED0012384F8A4
:103CA0009032206801F065FB7DB1002084F890021D
:103CB00038BD05EB8501C9001031014405EB8503D2
:103CC00000EBC30301225A74E1E704F52671206872
:103CD00001F0D3FBE9E70120EAE70220E8E70B4621
:103CE000017903F00F02914234D310B5044613F06A
:103CF000800F21D103F0070202EB8201C90001F518
:103D0000A871014402EB820200EBC202002082F89B
:103D1000510100228A7003F007030B7094F890326F
:103D2000012B19D0012384F89032206801F046FB62
:103D3000002084F8900210BD03F0070202EB82011C
:103D4000C9001031014402EB820200EBC2020120E3
:103D50005074DEE7012070470220ECE711F0800F7D
:103D60000BD001F0070101EB8101C90010310144C2
:103D700052B90A73CB800020704701EB8101C90062
:103D800001F5A8710144F3E701220A730B811B0CB2
:103D90004B81F0E782B0084B1B68084AA2FB032363
:103DA0005B0A00FB03F3019300BF019B5A1E0192C3
:103DB000002BF9D102B0704710000020D34D6210E3
:103DC000002800F0F18170B582B00446036813F05A
:103DD000010F2CD0994B5B6803F00C03042B1DD012
:103DE000964B5B6803F00C03082B12D06368B3F5A5
:103DF000803F41D0002B55D103F1804303F50433BC
:103E00001A6822F480321A601A6822F480221A603A
:103E100037E08A4B5B6813F4803FE7D0874B1B6821
:103E200013F4003F03D06368002B00F0BF812368C8
:103E300013F0020F75D0814B5B6813F00C0F5FD04D
:103E40007E4B5B6803F00C03082B54D02369002BD6
:103E500000F08A807A4B01221A60FEF751FD054678
:103E6000764B1B6813F0020F75D1FEF749FD401B1E
:103E70000228F5D903209EE1704A136843F4803389
:103E80001360636843B3FEF73BFD05466B4B1B684D
:103E900013F4003FCBD1FEF733FD401B6428F5D966
:103EA000032088E1B3F5A02F09D0644B1A6822F4EF
:103EB00080321A601A6822F480221A60E1E703F166
:103EC0008043A3F53C331A6842F480221A601A68D2
:103ED00042F480321A60D4E7FEF712FD0546574BD4
:103EE0001B6813F4003FA2D0FEF70AFD401B6428B4
:103EF000F5D903205FE1514B5B6813F4803FA5D1F6
:103F00004E4B1B6813F0020F03D02369012B40F0C6
:103F10004F814A4A136823F0F803616943EAC103F9
:103F20001360236813F0080F33D0A369002B5CD013
:103F3000434B0122C3F88024FEF7E2FC05463F4BC9
:103F40005B6A13F0020F21D1FEF7DAFC401B022856
:103F5000F5D903202FE1394A136823F0F80361698A
:103F600043EAC1031360DCE7354B00221A60FEF719
:103F7000C7FC0546314B1B6813F0020FD1D0FEF78A
:103F8000BFFC401B0228F5D9032014E10120FFF7F4
:103F900001FF236813F0040F00F09680274BDB69C4
:103FA00013F0805F34D1254BDA6942F08052DA6138
:103FB000DB6903F080530193019B0125214B1B68B2
:103FC00013F4807F26D0E368012B3DD0002B53D122
:103FD00003F1804303F504331A6A22F001021A62E6
:103FE0001A6A22F004021A6233E0154B0022C3F869
:103FF0008024FEF785FC0546104B5B6A13F0020F28
:10400000C7D0FEF77DFC401B0228F5D90320D2E083
:104010000025D3E70B4A136843F480731360FEF75F
:104020006FFC0646074B1B6813F4807FCBD1FEF76D
:1040300067FC801B6428F5D90320BCE00010024017
:1040400000004242007000405F4A136A43F00103DF
:104050001362E36833B3FEF753FC06465A4B1B6A00
:1040600013F0020F2FD1FEF74BFC801B41F2883377
:104070009842F3D903209EE0052B09D0524B1A6ACF
:1040800022F001021A621A6A22F004021A62E0E7C0
:104090004D4B1A6A42F004021A621A6A42F0010297
:1040A0001A62D6E7FEF72CFC0646474B1B6A13F054
:1040B000020F08D0FEF724FC801B41F2883398429F
:1040C000F3D9032077E0E5B9E369002B72D03E4ACB
:1040D000526802F00C02082A56D0022B17D03B4B34
:1040E00000221A66FEF70CFC0446374B1B6813F0DF
:1040F000007F47D0FEF704FC001B0228F5D90320FF
:1041000059E0314AD36923F08053D361DCE72F4B68
:1041100000221A66FEF7F4FB05462B4B1B6813F0D2
:10412000007F06D0FEF7ECFB401B0228F5D90320E8
:1041300041E0236AB3F5803F1AD023494B6823F44A
:104140007413226A606A024313434B601F4B0122BF
:104150001A66FEF7D5FB04461B4B1B6813F0007F65
:104160000ED1FEF7CDFB001B0228F5D9032022E07B
:10417000154A536823F40033A1680B435360DCE70E
:10418000002018E0002016E0012B16D00E4B5B68D3
:1041900003F48031226A914211D103F47013626AF0
:1041A00093420ED1002006E001207047012002E07A
:1041B000012000E0002002B070BD0120FBE70120DB
:1041C000F9E70120F7E700BF00100240000042427B
:1041D0000F4B5B6803F00C02082A01D00D487047B2
:1041E000C3F383420C49885C13F4803F0BD0084B27
:1041F0005B68C3F34043094AD35C064A02FB00F004
:10420000B0FBF3F07047064B03FB00F0704700BFB4
:104210000010024000127A004837010858370108A0
:1042200000093D00002800F0A08070B50D4604464E
:10423000524B1B6803F007038B420BD24F4A1368A3
:1042400023F007030B431360136803F007038B424B
:1042500040F08D80236813F0020F17D013F0040F85
:1042600004D0474A536843F4E0635360236813F073
:10427000080F04D0424A536843F460535360404AE5
:10428000536823F0F003A1680B435360236813F0D5
:10429000010F31D06368012B20D0022B25D0384A82
:1042A000126812F0020F64D035494A6822F0030206
:1042B00013434B60FEF724FB0646314B5B6803F06B
:1042C0000C036268B3EB820F16D0FEF719FB801B5C
:1042D00041F288339842F0D9032045E0284A126819
:1042E00012F4003FE0D101203EE0254A126812F0AE
:1042F000007FD9D1012037E0204B1B6803F0070372
:10430000AB420AD91D4A136823F007032B431360FD
:10431000136803F00703AB422DD1236813F0040F99
:1043200006D0174A536823F4E063E1680B435360F7
:10433000236813F0080F07D0114A536823F4605321
:10434000216943EAC1035360FFF742FF0C4B5B68EE
:10435000C3F303130B4AD35CD8400B4B18600B4BD1
:104360001868FEF789FA002070BD0120704701200F
:10437000FAE70120F8E70120F6E700BF002002403D
:104380000010024030370108100000201800002003
:10439000014B1868704700BF1000002008B5FFF7F8
:1043A000F7FF044B5B68C3F30223034AD35CD84096
:1043B00008BD00BF001002404037010808B5FFF7F4
:1043C000E7FF044B5B68C3F3C223034AD35CD840C6
:1043D00008BD00BF001002404037010870B582B030
:1043E0000446036813F0010F36D03F4BDB6913F02E
:1043F000805F49D13C4BDA6942F08052DA61DB6977
:1044000003F080530193019B0125384B1B6813F483
:10441000807F3BD0344B1B6A13F4407313D0626827
:1044200002F440729A420ED02F4A136A23F440706D
:104430002F490126C1F840640026C1F8406410628B
:1044400013F0010F36D1284A136A23F440736168D0
:104450000B431362002D3ED1236813F0020F06D0E8
:10446000214A536823F44043A1680B4353602368F7
:1044700013F0100F34D01C4A536823F48003E16812
:104480000B43536000202CE00025BEE7174A136859
:1044900043F480731360FEF733FA0646134B1B6830
:1044A00013F4807FB6D1FEF72BFA801B6428F5D970
:1044B000032016E0FEF724FA06460B4B1B6A13F0A6
:1044C000020FC0D1FEF71CFA801B41F288339842DC
:1044D000F3D9032005E0D36923F08053D361BBE710
:1044E000002002B070BD00BF00100240007000400C
:1044F0000000424200285CD010B50446436A33B93C
:104500004368B3F5827F05D00023C36102E0002336
:104510000361436194F85130002B40D0022384F8AA
:1045200051302268136823F040031360636803F47A
:104530008273A26802F404421343E26802F4006248
:104540001343226902F002021343626902F001027E
:104550001343A26902F400721343E26902F03802C5
:104560001343226A02F080021343A26A02F400524B
:10457000216813430B60638B226803F004035360CC
:10458000A36AB3F5005F10D02268D36923F40063F7
:10459000D36100206065012384F8513010BD84F898
:1045A00050302046FDF7DEFFB8E72368A28D1A6180
:1045B000EAE701207047704730B585B004460268CD
:1045C00051689368C3F3801013F0400F05D113F0C6
:1045D000010F02D011F0400F5AD113F0020F02D098
:1045E00011F0800F58D1C3F3401513F0200F01D103
:1045F000002854D011F0200F51D078B194F85130E8
:10460000DBB2032B4DD0636D43F0040363650023DD
:104610000193D368019393680193019B65B1636D26
:1046200043F00103636500230393936803931368C6
:1046300023F040031360039B636D002B2FD022688F
:10464000536823F0E0035360012384F8513011F0E4
:10465000030F2ED02268536823F003035360E36CEA
:104660004BB1164A5A63E06CFEF706FA18B1636D57
:1046700043F040036365A36C8BB1104A5A63A06C8E
:10468000FEF7FAF958B1636D43F04003636506E045
:10469000236C2046984702E0636C2046984705B09B
:1046A00030BD00230293D368029393680293029B68
:1046B000F5E72046FFF77FFFF1E700BFC14600089E
:1046C00008B5406A0023C387C386FFF774FF08BD9F
:1046D000026802F10C0353E8003F23F490730C329C
:1046E00042E800310029F3D1026802F1140353E8D3
:1046F000003F23F00103143242E800310029F3D1D6
:10470000036B012B05D0202380F842300023036384
:104710007047026802F10C0353E8003F23F01003D6
:104720000C3242E800310029F3D1ECE790F8413037
:10473000DBB2212B01D0022070478368B3F5805F84
:1047400017D0036A5A1C02621A7803685A60C38C35
:104750009BB2013B9BB2C3844BB90268D36823F080
:104760008003D3600268D36843F04003D360002025
:1047700070470369002BE4D1036A1B880268C3F306
:1047800008035360036A02330362E0E710B504468E
:104790000268136923F44053C1680B4313618368B3
:1047A0000269134342691A430168CB6823F4B0538A
:1047B00023F00C031343CB600268536923F4407366
:1047C00081690B4353610268134B9A4220D0FFF773
:1047D000E5FD024602EB820202EB820263689B0067
:1047E000B2FBF3F20D48A0FB02314909642303FB3D
:1047F00011231B013233A0FB03235B0903F0F002FA
:1048000002EB011203F00F03216813448B6010BD0B
:10481000FFF7D4FD0246DDE7003801401F85EB516C
:104820002DE9F04383B005460E4617469946DDF85C
:1048300028802C68246836EA04030CBF4FF0010C72
:104840004FF0000CBC4528D1B8F1FF3FF1D0FEF786
:1048500057F8A0EB0900404523D8B8F1000F22D04B
:104860002B68DA6812F0040FE3D0802EE1D0402EDE
:10487000DFD01A6812F0080FDBD0002401941A6808
:1048800001925B680193019B2846FFF721FF0823F3
:104890006B6485F84040012000E0002003B0BDE8D3
:1048A000F0830320FAE70320F8E760B310B504466D
:1048B00090F8413013B3242384F841302268D36840
:1048C00023F40053D3602046FFF760FF226813698A
:1048D00023F4904313612268536923F02A03536140
:1048E0002268D36843F40053D3600020606420231F
:1048F00084F8413084F84230606310BD80F8403065
:10490000FDF740FFD7E7012070472DE9F04182B065
:104910001E4690F84130DBB2202B56D104460D469E
:104920009046002955D00AB901204FE00023436486
:10493000212380F84130FDF7E3FF0746A4F82480E7
:10494000A4F82680A368B3F5805F02D04FF000087A
:1049500014E023692BB34FF000080FE0202384F804
:104960004130032032E038F8023B2268C3F30803E9
:104970005360E28C92B2013A92B2E284E38C9BB231
:1049800093B100963B46002280212046FFF748FF66
:104990000028E3D1002DE6D015F8012B23685A60DA
:1049A000E7E7A8460025E9E700963B4600224021BC
:1049B0002046FFF735FF18B9202384F8413005E081
:1049C000202384F84130032000E0022002B0BDE83B
:1049D000F0810120FAE7704708B50168CA6822F043
:1049E0004002CA60202280F84120FFF7F4FF002037
:1049F00008BD7047704708B5406A0023C385C3846B
:104A0000FFF7F8FF08BD704790F84230DBB2222B69
:104A100069D18368B3F5805F4FD0826AB3F5805F58
:104A200004D0002B56D10369002B53D103685B6877
:104A30001370836A01338362C38D9BB2013B9BB2C7
:104A4000C385002B51D100B583B00268D36823F031
:104A50002003D3600268D36823F48073D3600268B4
:104A6000536923F001035361202380F8423000236F
:104A70004363036B012B33D100230363026802F10C
:104A80000C0353E8003F23F010030C3242E80031DE
:104A90000029F3D103681A6812F0100F06D0002223
:104AA00001921A6801925B680193019B818DFFF767
:104AB000AAFF002003B05DF804FB0269002AACD114
:104AC000826A03685B68C3F308031380836A023356
:104AD0008362B1E703685B6803F07F031370A8E7A4
:104AE000FFF787FFE5E702207047002070470000CE
:104AF00030B583B0044602681368D068516913F07A
:104B00000F0505D113F0200F02D010F0200F19D19E
:104B10002DB111F0010119D110F4907F16D1216B44
:104B200001297DD013F0800F03D010F0800F40F0EA
:104B3000188113F0400F03D010F0400F40F01581A2
:104B400003B030BD2046FFF75FFFF9E713F0010F18
:104B500006D010F4807F03D0626C42F001026264E0
:104B600013F0040F04D019B1626C42F002026264C7
:104B700013F0020F04D019B1626C42F004026264B7
:104B800013F0080F07D010F0200F00D119B1626C9C
:104B900042F008026264626C002AD1D013F0200F48
:104BA00002D010F0200F29D123685B6903F0400385
:104BB000626C12F0080F00D163B32046FFF788FD46
:104BC00023685B6913F0400F20D0226802F11403C0
:104BD00053E8003F23F04003143242E8003100293B
:104BE000F3D1E36B73B1634A5A63E06BFDF744FFA3
:104BF0000028A5D0E06B436B9847A1E72046FFF75C
:104C000003FFD1E72046FFF7F5FE99E72046FFF7BF
:104C1000F1FE95E72046FFF7EDFE002363648FE782
:104C200013F0100F3FF47EAF10F0100F3FF47AAF87
:104C3000002301931368019353680193019B536907
:104C400013F0400F51D0E26B13685B689BB2002BEE
:104C50003FF476AFA18D99427FF672AFE3859369F9
:104C6000202B37D0226802F10C0353E8003F23F4D5
:104C700080730C3242E800310029F3D1226802F13E
:104C8000140353E8003F23F00103143242E80031DB
:104C90000029F3D1226802F1140353E8003F23F006
:104CA0004003143242E800310029F3D1202384F874
:104CB000423000232363226802F10C0353E8003FD3
:104CC00023F010030C3242E800310029F3D1E06BED
:104CD000FDF7AEFE02236363A18DE38D9BB2C91A7B
:104CE00089B22046FFF78FFE2AE7A18DE38D9BB2A4
:104CF000C91A89B2E38D9BB2002B3FF421AF002982
:104D00003FF41EAF226802F10C0353E8003F23F486
:104D100090730C3242E800300028F3D1226802F18F
:104D2000140353E8003F23F00103143242E800303B
:104D30000028F3D1202384F8423000232363226823
:104D400002F10C0353E8003F23F010030C3242E859
:104D500000300028F3D1022363632046FFF753FE9F
:104D6000EEE62046FFF7E2FCEAE62046FFF734FED7
:104D7000E6E600BFF749000884B004A800E90E0089
:104D8000002004B0704703460020A3F844004FF40D
:104D90003F42A3F840207047B0F8403023F47C53E2
:104DA0005B045B0CA0F84030002070470020704787
:104DB00084B0844604A800E90E000123ACF840301A
:104DC0000020ACF84000ACF84400ACF8500004B04F
:104DD000704710B5034691F800C030F82C2092B20D
:104DE00022F4EC4222F0700292B2C878032861D813
:104DF000DFE800F0555C0258002048F2800E42EADD
:104E00000E0223F82C2091F800C033F82C2092B227
:104E100022F4E04222F070024CEA020242EA0E0260
:104E200023F82C200A7B002A40F0DC804A78002AF4
:104E300051D0B3F8502092B21A440C7802EB04120D
:104E4000B1F806C04FEA5C0C4FEA4C0CA2F800C463
:104E50000C7833F8242012F0400F0CD033F82420C3
:104E600092B222F4E04222F0700242F4004242F098
:104E7000C00223F82420CA78012A1DD0097833F80B
:104E8000212092B222F4E04222F0400282F020027D
:104E900042F4004242F0800223F8212017E142F45C
:104EA0000072AAE742F4C0620020A6E742F48062E2
:104EB0000020A2E70120A0E7097833F8212092B270
:104EC00022F4E04222F0400242F4004242F080022A
:104ED00023F82120FBE0B3F8502092B21A440C785A
:104EE00002EB0412B1F806C04FEA5C0C4FEA4C0C1E
:104EF000A2F808C4B3F8502092B21A440C7802EB1E
:104F00000412B2F80CC4CCF3090CA2F80CC40C695E
:104F10003E2C39D94FEA541E14F01F0F01D10EF167
:104F2000FF3EB2F80CC41FFA8CFC4FEA8E2E1FFA1B
:104F30008EFE4CEA0E0C4CF4004CA2F80CC40C781B
:104F400033F8242012F4804F0CD033F8242092B28E
:104F500022F4E04222F0700242F4404242F0800229
:104F600023F82420097869BB33F8212092B222F477
:104F7000804222F0700282F4405242F4004242F039
:104F8000800223F82120A2E04CB9B2F80C446FEA69
:104F900044446FEA5444A4B2A2F80C44CFE74FEA69
:104FA000540C14F0010F01D00CF1010CB2F80C44B8
:104FB000A4B24FEA8C2C1FFA8CFC44EA0C0CA2F829
:104FC0000CC4BCE733F8212092B222F4804222F0D4
:104FD000700282F4005242F4004242F0800223F850
:104FE000212074E0CA78022A72D00C7833F8242089
:104FF00092B222F4E24222F0700242F4004242F005
:10500000800223F82420B3F8502092B21A4491F879
:1050100000C002EB0C12B1F808C04FEA5C0C4FEA7A
:105020004C0CA2F800C4B3F8502092B21A4491F884
:1050300000C002EB0C12B1F80AC04FEA5C0C4FEA58
:105040004C0CA2F808C44A78002A50D10C7833F8E6
:10505000242012F4804F0CD033F8242092B222F492
:10506000E04222F0700242F4404242F0800223F813
:1050700024200C7833F8242012F0400F0CD033F8A1
:10508000242092B222F4E04222F0700242F4004264
:1050900042F0C00223F8242091F800C033F82C20FD
:1050A00092B222F4804222F0700282F4405248F21E
:1050B0008004224323F82C20097833F8212092B26F
:1050C00022F4E04222F04002224323F8212010BDC6
:1050D0000C7833F8242092B222F4E04222F07002DD
:1050E00042F4014242F0800223F824208BE70C783E
:1050F00033F8242012F4804F0CD033F8242092B2DD
:1051000022F4E04222F0700242F4404242F0800277
:1051100023F824200C7833F8242012F0400F0CD010
:1051200033F8242092B222F4E04222F0700242F4DA
:10513000004242F0C00223F82420CA78012A1ED07F
:105140000C7833F8242092B222F4E04222F040029C
:1051500082F0200242F4004242F0800223F8242030
:10516000097833F8212092B222F4804222F07002B2
:1051700042F4004242F0800223F82120A7E70C7895
:1051800033F8242092B222F4E04222F0400242F4AA
:10519000004242F0800223F82420E1E70B7B002B41
:1051A00046D14B7813B30A7830F8223013F0400F11
:1051B0000CD030F822309BB223F4E04323F070038C
:1051C00043F4004343F0C00320F822300A7830F85B
:1051D00022309BB223F4E04323F0400343F4004326
:1051E00043F0800320F82230002070470A7830F81E
:1051F000223013F4804F0CD030F822309BB223F4CD
:10520000E04323F0700343F4404343F0800320F86D
:1052100022300A7830F822309BB223F4804323F006
:10522000700343F4004343F0800320F82230DBE7AF
:105230004B78002B4ED10A7830F8223013F4804F8F
:105240000CD030F822309BB223F4E04323F07003FB
:1052500043F4404343F0800320F822300A7830F8CA
:10526000223013F0400F0CD030F822309BB223F4E0
:10527000E04323F0700343F4004343F0C00320F8FD
:1052800022300A7830F822309BB223F4E04323F036
:10529000700343F4004343F0C00320F822300B783E
:1052A00030F8232092B222F4804222F0700248F2B9
:1052B000800C42EA0C0220F823200A7830F82230D1
:1052C0009BB223F4E04323F0400343EA0C0320F8AD
:1052D000223089E70A7830F8223013F4804F0CD05E
:1052E00030F822309BB223F4E04323F0700343F400
:1052F000404343F0800320F822300A7830F822300F
:1053000013F0400F0CD030F822309BB223F4E0436E
:1053100023F0700343F4004343F0C00320F822302D
:105320000A7830F822309BB223F4E04323F0700374
:1053300043F4404343F0800320F822300B7830F8E8
:10534000232092B222F4E04222F0400248F2800C84
:1053500042EA0C0220F823200A7830F822309BB26F
:1053600023F4804323F0700343EA0C0320F8223037
:105370003AE74B788BB10A7830F822309BB223F4AD
:10538000E04323F0400383F0100343F4004343F071
:10539000800320F82230002070470A7830F822304D
:1053A0009BB223F4804323F0700383F4805343F4CF
:1053B000004343F0800320F82230ECE70B7B002B06
:1053C0004BD14B7833B30A7830F8223013F0400FCA
:1053D0000CD030F822309BB223F4E04323F070036A
:1053E00043F4004343F0C00320F82230CB78012B74
:1053F00033D00A7830F822309BB223F4E04323F014
:10540000400383F0200343F4004343F0800320F87B
:10541000223022E00A7830F8223013F4804F0CD08A
:1054200030F822309BB223F4E04323F0700343F4BE
:10543000404343F0800320F822300A7830F82230CD
:105440009BB223F4804323F0700383F4405343F46E
:10545000004343F0800320F822300020704711B948
:105460008023A0F84C3000207047002070470020B7
:105470007047B0F8440080B270470020704710B405
:105480005C1C640800EB420202F5806207E00B78C6
:10549000487843EA002322F8043B0231013C002C07
:1054A000F5D110BC704770B505460C464A78012A04
:1054B0003BD00B7B002B40F0A6828B690A6993429C
:1054C00040F284829B1A8B61B5F850309BB22B441A
:1054D000217803EB0113B3F80C14C1F30901A3F80D
:1054E0000C143E2A40F27682510912F01F0F00D1AF
:1054F0000139B3F80C2492B2890289B20A4342F40A
:105500000042A3F80C24227835F822309BB223F411
:10551000804323F0700383F4405343F4004343F08B
:10552000800325F82230002070BD8E6909698E4203
:1055300000D90E46237B73B3E378022B4DD0236A48
:105540009B1B2362217835F8213013F0400F00F0C7
:10555000F581002A40F0E281B5F850309BB22B442F
:1055600003EB0113B3F80C24C2F30902A3F80C24D3
:105570003E2E40F2BA81710916F01F0F00D1013999
:10558000B3F80C2492B2890289B20A4342F4004271
:10559000A3F80C24CBE1B6B23346E2886169284611
:1055A000FFF76DFFB5F850309BB22B44227803EB28
:1055B0000213A3F80464227835F822309BB223F456
:1055C000E04323F0400383F0300343F4004343F00F
:1055D000800325F822300020A6E7236A994280F054
:1055E0006681227835F822309BB223F4E04323F021
:1055F000700343F4014343F0800325F82230236A0B
:105600009B1B2362227835F8223013F0400F00F004
:10561000A7806378B3BBB5F850309BB22B4403EB43
:105620000213B3F80C24C2F30902A3F80C243E2E93
:105630000FD9710916F01F0F00D10139B3F80C24EE
:1056400092B2890289B20A4342F40042A3F80C24C0
:105650001AE04EB9B3F80C246FEA42426FEA5242A4
:1056600092B2A3F80C240FE0720816F0010F00D0DC
:105670000132B3F80C1489B2920292B20A43A3F831
:105680000C2401E0012B30D0B3B262896169284655
:10569000FFF7F5FE636933446361236A226993422D
:1056A0002DD99B1B23626378002B45D1B5F8503070
:1056B0009BB22B44227803EB0213B3F80424C2F309
:1056C0000902A3F804243E2E1DD9710916F01F0FFC
:1056D00000D10139B3F8042492B2890289B20A4395
:1056E00042F40042A3F8042428E0B5F850309BB2FD
:1056F0002B4403EB0213B2B2A3F80C24C4E700223C
:1057000022621E46CFE74EB9B3F804246FEA424244
:105710006FEA524292B2A3F804240FE0720816F026
:10572000010F00D00132B3F8041489B2920292B290
:105730000A43A3F8042401E0012B06D0B3B2228966
:1057400061692846FFF79BFE35E7B5F850309BB2FC
:105750002B44227803EB0213B2B2A3F80424EDE742
:105760006378B3BBB5F850309BB22B4403EB021304
:10577000B3F80424C2F30902A3F804243E2E0FD97F
:10578000710916F01F0F00D10139B3F8042492B249
:10579000890289B20A4342F40042A3F804241AE0C1
:1057A0004EB9B3F804246FEA42426FEA524292B211
:1057B000A3F804240FE0720816F0010F00D00132A4
:1057C000B3F8041489B2920292B20A43A3F80424F3
:1057D00001E0012B30D0B3B2228961692846FFF77E
:1057E0004EFE636933446361236A226993422DD973
:1057F0009B1B23626378002B45D1B5F850309BB2D8
:105800002B44227803EB0213B3F80C24C2F30902F1
:10581000A3F80C243E2E1DD9710916F01F0F00D1DC
:105820000139B3F80C2492B2890289B20A4342F4D6
:105830000042A3F80C2428E0B5F850309BB22B446A
:1058400003EB0213B2B2A3F80424C4E700222262DD
:105850001E46CFE74EB9B3F80C246FEA42426FEA16
:10586000524292B2A3F80C240FE0720816F0010F16
:1058700000D00132B3F80C1489B2920292B20A43FA
:10588000A3F80C2401E0012B06D0B3B26289616950
:105890002846FFF7F4FD8EE6B5F850309BB22B4456
:1058A000227803EB0213B2B2A3F80C24EDE72178BF
:1058B00035F8212092B222F4E24222F0700242F442
:1058C000004242F0800225F82120B5F8502092B223
:1058D0002A44217802EB01129BB2A2F804342289F7
:1058E00061692846FFF7CBFD65E64EB9B3F80C2495
:1058F0006FEA42426FEA524292B2A3F80C2416E0D9
:10590000720816F0010F00D00132B3F80C1489B2FE
:10591000920292B20A43A3F80C2408E0B5F8503082
:105920009BB22B4403EB0113B2B2A3F80C24B3B225
:10593000628961692846FFF7A2FD3CE6B2BBB5F873
:1059400050309BB22B4403EB0113B3F80424C2F391
:105950000902A3F804243E2E0FD9710916F01F0F77
:1059600000D10139B3F8042492B2890289B20A4302
:1059700042F40042A3F8042421E04EB9B3F8042411
:105980006FEA42426FEA524292B2A3F8042416E050
:10599000720816F0010F00D00132B3F8041489B276
:1059A000920292B20A43A3F8042408E0B5F85030FA
:1059B0009BB22B4403EB0113B2B2A3F80424B3B29D
:1059C000228961692846FFF75AFDF4E500228A61C1
:1059D0001A4679E54AB9B3F80C246FEA42426FEAF5
:1059E000524292B2A3F80C248DE5510812F0010F37
:1059F00000D00131B3F80C2492B2890289B211436C
:105A0000A3F80C147FE5CB78022B4DD0012B40F08E
:105A10002F8189692369994240F2E680C91AA16100
:105A2000F2B9B5F8502092B22A44217802EB011263
:105A3000B2F80414C1F30901A2F804143E2B40F299
:105A4000D780580913F01F0F00D10138B2F80414A1
:105A500089B2800280B2014341F40041A2F80414EB
:105A60006278002A40F0F680B5F8502092B22A44BD
:105A7000217802EB0112B2F80C14C1F30901A2F86B
:105A80000C143E2B40F2CD80590913F01F0F00D1AA
:105A90000139B2F80C349BB2890289B20B4343F44A
:105AA0000043A2F80C342EE5F2B9B0F850309BB2A6
:105AB00003440A7803EB0213B3F80424C2F3090287
:105AC000A3F804240A693E2A31D9510912F01F0FA4
:105AD00000D10139B3F8042492B2890289B20A4391
