:020000040800F2
:1000000000500020F9450008FD430008FF430008A8
:1000100001440008034400080544000800000000F3
:10002000000000000000000000000000074400087D
:1000300009440008000000000B4400080D440008BB
:100040004146000841460008414600084146000874
:100050004146000841460008154400084146000892
:100060004146000841460008414600084146000854
:100070004146000841460008414600084146000844
:100080004146000841460008414600084146000834
:100090002144000841460008414600083144000858
:1000A0004146000841460008414600084146000814
:1000B0004146000841460008414600084146000804
:1000C00041460008414600084146000841460008F4
:1000D0003D4400084D4400084146000841460008E0
:1000E0004146000841460008414600080000000063
:1000F0000000000000000000000000000000000000
:0C01000000000000000000005FF808F1A3
:1001100010B5054C237833B9044B13B10448AFF341
:1001200000800123237010BDEC03002000000000BC
:100130009007010808B5034B1BB103490348AFF30F
:10014000008008BD00000000F003002090070108B7
:1001500081F0004102E000BF83F0004330B54FEA78
:1001600041044FEA430594EA050F08BF90EA020FE5
:100170001FBF54EA000C55EA020C7FEA645C7FEA78
:10018000655C00F0E2804FEA5454D4EB5555B8BF9B
:100190006D420CDD2C4480EA020281EA030382EA0C
:1001A000000083EA010180EA020281EA0303362D9E
:1001B00088BF30BD11F0004F4FEA01314FF4801C71
:1001C0004CEA113102D0404261EB410113F0004F83
:1001D0004FEA03334CEA133302D0524263EB43033A
:1001E00094EA050F00F0A780A4F10104D5F1200ED8
:1001F0000DDB02FA0EFC22FA05F2801841F1000133
:1002000003FA0EF2801843FA05F359410EE0A5F106
:1002100020050EF1200E012A03FA0EFC28BF4CF037
:10022000020C43FA05F3C01851EBE37101F00045ED
:1002300007D54FF0000EDCF1000C7EEB00006EEBFA
:100240000101B1F5801F1BD3B1F5001F0CD3490884
:100250005FEA30004FEA3C0C04F101044FEA4452DB
:1002600012F5800F80F09A80BCF1004F08BF5FEA62
:10027000500C50F1000041EB045141EA050130BD42
:100280005FEA4C0C404141EB0101013C28BFB1F554
:10029000801FE9D291F0000F04BF01460020B1FA9F
:1002A00081F308BF2033A3F10B03B3F120020CDA72
:1002B0000C3208DD02F1140CC2F10C0201FA0CF050
:1002C00021FA02F10CE002F11402D8BFC2F1200CB5
:1002D00001FA02F120FA0CFCDCBF41EA0C0190406B
:1002E000E41AA2BF01EB0451294330BD6FEA0404B4
:1002F0001F3C1CDA0C340EDC04F11404C4F120029F
:1003000020FA04F001FA02F340EA030021FA04F3B0
:1003100045EA030130BDC4F10C04C4F1200220FA07
:1003200002F001FA04F340EA0300294630BD21FA45
:1003300004F0294630BD94F0000F83F4801306BF0B
:1003400081F480110134013D4EE77FEA645C18BFFF
:100350007FEA655C29D094EA050F08BF90EA020F96
:1003600005D054EA000C04BF1946104630BD91EA8E
:10037000030F1EBF0021002030BD5FEA545C05D191
:100380004000494128BF41F0004130BD14F58004D0
:100390003CBF01F5801130BD01F0004545F0FE4144
:1003A00041F470014FF0000030BD7FEA645C1ABF79
:1003B000194610467FEA655C1CBF0B46024650EAB0
:1003C000013406BF52EA033591EA030F41F40021DC
:1003D00030BD00BF90F0000F04BF0021704730B562
:1003E0004FF4806404F132044FF000054FF0000137
:1003F00050E700BF90F0000F04BF0021704730B5F8
:100400004FF4806404F1320410F0004548BF4042CC
:100410004FF000013EE700BF42004FEAE2014FEA21
:1004200031014FEA02701FBF12F07F4393F07F4FFC
:1004300081F06051704732F07F4208BF704793F0FF
:100440007F4F04BF41F40021704730B54FF4607412
:1004500001F0004521F000411CE700BF50EA010215
:1004600008BF704730B54FF000050AE050EA0102BE
:1004700008BF704730B511F0004502D5404261EB2E
:1004800041014FF4806404F132045FEA915C3FF46F
:10049000D8AE4FF003025FEADC0C18BF03325FEA0C
:1004A000DC0C18BF033202EBDC02C2F1200300FABD
:1004B00003FC20FA02F001FA03FE40EA0E0021FAE2
:1004C00002F11444BDE600BF70B54FF0FF0C4CF4D0
:1004D000E06C1CEA11541DBF1CEA135594EA0C0F82
:1004E00095EA0C0F00F0DEF82C4481EA030621EABD
:1004F0004C5123EA4C5350EA013518BF52EA0335F8
:1005000041F4801143F4801338D0A0FB02CE4FF0A9
:100510000005E1FB02E506F00042E0FB03E54FF0D9
:100520000006E1FB03569CF0000F18BF4EF0010ED1
:10053000A4F1FF04B6F5007F64F5407404D25FEACD
:100540004E0E6D4146EB060642EAC62141EA555180
:100550004FEAC52040EA5E504FEACE2EB4F1FD0CC2
:1005600088BFBCF5E06F1ED8BEF1004F08BF5FEA40
:10057000500E50F1000041EB045170BD06F00046F2
:1005800046EA010140EA020081EA0301B4EB5C049F
:10059000C2BFD4EB0C0541EA045170BD41F4801197
:1005A0004FF0000E013C00F3AB8014F1360FDEBFBC
:1005B000002001F0004170BDC4F10004203C35DA98
:1005C0000C341BDC04F11404C4F1200500FA05F31B
:1005D00020FA04F001FA05F240EA020001F00042BC
:1005E00021F0004110EBD37021FA04F642EB060132
:1005F0005EEA430E08BF20EAD37070BDC4F10C045C
:10060000C4F1200500FA04F320FA05F001FA04F21F
:1006100040EA020001F0004110EBD37041F100010B
:100620005EEA430E08BF20EAD37070BDC4F1200516
:1006300000FA05F24EEA020E20FA04F301FA05F27E
:1006400043EA020321FA04F001F0004121FA04F226
:1006500020EA020000EBD3705EEA430E08BF20EAF6
:10066000D37070BD94F0000F0FD101F00046400030
:1006700041EB010111F4801F08BF013CF7D041EAB2
:10068000060195F0000F18BF704703F000465200B6
:1006900043EB030313F4801F08BF013DF7D043EA87
:1006A0000603704794EA0C0F0CEA135518BF95EA3D
:1006B0000C0F0CD050EA410618BF52EA4306D1D1C4
:1006C00081EA030101F000414FF0000070BD50EAE3
:1006D000410606BF1046194652EA430619D094EA6D
:1006E0000C0F02D150EA013613D195EA0C0F05D157
:1006F00052EA03361CBF104619460AD181EA0301AB
:1007000001F0004141F0FE4141F470014FF0000062
:1007100070BD41F0FE4141F4780170BD70B54FF0FD
:10072000FF0C4CF4E06C1CEA11541DBF1CEA13557D
:1007300094EA0C0F95EA0C0F00F0A7F8A4EB05045F
:1007400081EA030E52EA03354FEA013100F0888056
:100750004FEA03334FF0805545EA131343EA12631F
:100760004FEA022245EA111545EA10654FEA0026D4
:100770000EF000419D4208BF964244F1FD0404F58D
:10078000407402D25B084FEA3202B61A65EB0305E9
:100790005B084FEA32024FF480104FF4002CB6EBA6
:1007A000020E75EB030E22BFB61A754640EA0C0026
:1007B0005B084FEA3202B6EB020E75EB030E22BF66
:1007C000B61A754640EA5C005B084FEA3202B6EBA7
:1007D000020E75EB030E22BFB61A754640EA9C0066
:1007E0005B084FEA3202B6EB020E75EB030E22BF36
:1007F000B61A754640EADC0055EA060E18D04FEAF4
:10080000051545EA16754FEA06164FEAC30343EA93
:1008100052734FEAC2025FEA1C1CC0D111F4801F60
:100820000BD141EA00014FF000004FF0004CB6E759
:1008300011F4801F04BF01430020B4F1FD0C88BFF8
:10084000BCF5E06F3FF6AFAEB5EB030C04BFB6EB03
:10085000020C5FEA500C50F1000041EB045170BDF6
:100860000EF0004E4EEA113114EB5C04C2BFD4EB23
:100870000C0541EA045170BD41F480114FF0000EA7
:10088000013C90E645EA060E8DE60CEA135594EA23
:100890000C0F08BF95EA0C0F3FF43BAF94EA0C0F26
:1008A0000AD150EA01347FF434AF95EA0C0F7FF49B
:1008B00025AF104619462CE795EA0C0F06D152EAEF
:1008C00003353FF4FDAE1046194622E750EA4106D3
:1008D00018BF52EA43067FF4C5AE50EA41047FF4E4
:1008E0000DAF52EA43057FF4EBAE12E74FEA410247
:1008F00012F5001215D211D56FF47873B3EB625272
:1009000012D94FEAC12343F0004343EA505311F098
:10091000004F23FA02F018BF404270474FF000002A
:10092000704750EA013005D111F0004008BF6FF068
:10093000004070474FF00000704700BF4FEA41028F
:10094000B2F1E04324BFB3F5001CDCF1FE5C0DD92D
:1009500001F0004C4FEAC0024CEA5070B2F1004F77
:1009600040EB830008BF20F00100704711F0804F7A
:1009700021D113F13872BCBF01F00040704741F43F
:1009800080114FEA5252C2F11802C2F1200C10FA43
:100990000CF320FA02F018BF40F001004FEAC12327
:1009A0004FEAD32303FA0CFC40EA0C0023FA02F3CB
:1009B0004FEA4303CCE77FEA625307D150EA0133A1
:1009C0001EBF4FF0FE4040F44000704701F0004071
:1009D00040F0FE4040F40000704700BF80F000404F
:1009E00002E000BF81F0004142001FBF5FEA410307
:1009F00092EA030F7FEA226C7FEA236C6AD04FEA07
:100A00001262D2EB1363C1BFD2184140484041404B
:100A1000B8BF5B42192B88BF704710F0004F40F4FD
:100A2000000020F07F4018BF404211F0004F41F419
:100A3000000121F07F4118BF494292EA030F3FD0E5
:100A4000A2F1010241FA03FC10EB0C00C3F12003F8
:100A500001FA03F100F0004302D5494260EB400087
:100A6000B0F5000F13D3B0F1807F06D340084FEAF2
:100A7000310102F10102FE2A51D2B1F1004F40EBE7
:100A8000C25008BF20F0010040EA0300704749004F
:100A900040EB0000013A28BFB0F5000FEDD2B0FAEC
:100AA00080FCACF1080CB2EB0C0200FA0CF0AABF0F
:100AB00000EBC25052421843BCBFD04018437047AD
:100AC00092F0000F81F4000106BF80F400000132B3
:100AD000013BB5E74FEA41037FEA226C18BF7FEA8A
:100AE000236C21D092EA030F04D092F0000F08BFCC
:100AF0000846704790EA010F1CBF0020704712F0B3
:100B00007F4F04D1400028BF40F00040704712F1F1
:100B100000723CBF00F50000704700F0004343F056
:100B2000FE4040F4000070477FEA226216BF08468C
:100B30007FEA23630146420206BF5FEA412390EA4F
:100B4000010F40F4800070474FF0000304E000BF45
:100B500010F0004348BF40425FEA000C08BF7047F6
:100B600043F0964301464FF000001CE050EA0102BA
:100B700008BF70474FF000030AE000BF50EA0102CF
:100B800008BF704711F0004302D5404261EB4101BC
:100B90005FEA010C02BF84460146002043F0B643E1
:100BA00008BFA3F18053A3F50003BCFA8CF2083A06
:100BB000A3EBC25310DB01FA02FC634400FA02FC0F
:100BC000C2F12002BCF1004F20FA02F243EB020016
:100BD00008BF20F00100704702F1200201FA02FC78
:100BE000C2F1200250EA4C0021FA02F243EB02006B
:100BF00008BF20EADC7070474FF0FF0C1CEAD052AF
:100C00001EBF1CEAD15392EA0C0F93EA0C0F6FD06F
:100C10001A4480EA010C400218BF5FEA41211ED04D
:100C20004FF0006343EA501043EA5111A0FB013139
:100C30000CF00040B1F5000F3EBF490041EAD3710E
:100C40005B0040EA010062F17F02FD2A1DD8B3F18A
:100C5000004F40EBC25008BF20F00100704790F0F9
:100C6000000F0CF0004C08BF49024CEA502040EA4B
:100C700051207F3AC2BFD2F1FF0340EAC250704711
:100C800040F400004FF00003013A5DDC12F1190F4F
:100C9000DCBF00F000407047C2F10002410021FAC1
:100CA00002F1C2F1200200FA02FC5FEA310040F1D9
:100CB000000053EA4C0308BF20EADC70704792F052
:100CC000000F00F0004C02BF400010F4000F013A8A
:100CD000F9D040EA0C0093F0000F01F0004C02BF85
:100CE000490011F4000F013BF9D041EA0C018FE7F4
:100CF0000CEAD15392EA0C0F18BF93EA0C0F0AD0FA
:100D000030F0004C18BF31F0004CD8D180EA01001F
:100D100000F00040704790F0000F17BF90F0004FB8
:100D2000084691F0000F91F0004F14D092EA0C0F9A
:100D300001D142020FD193EA0C0F03D14B0218BF2D
:100D4000084608D180EA010000F0004040F0FE4073
:100D500040F40000704740F0FE4040F4400070470F
:100D60004FF0FF0C1CEAD0521EBF1CEAD15392EA8E
:100D70000C0F93EA0C0F69D0A2EB030280EA010C7E
:100D800049024FEA402037D04FF0805343EA111117
:100D900043EA10130CF000408B4238BF5B0042F175
:100DA0007D024FF4000C8B4224BF5B1A40EA0C001A
:100DB000B3EB510F24BFA3EB510340EA5C00B3EB4C
:100DC000910F24BFA3EB910340EA9C00B3EBD10F3A
:100DD00024BFA3EBD10340EADC001B0118BF5FEA8C
:100DE0001C1CE0D1FD2A3FF650AF8B4240EBC250B5
:100DF00008BF20F0010070470CF0004C4CEA502076
:100E00007F32C2BFD2F1FF0340EAC250704740F4C4
:100E100000004FF00003013A37E792F0000F00F0B6
:100E2000004C02BF400010F4000F013AF9D040EA34
:100E30000C0093F0000F01F0004C02BF490011F4C8
:100E4000000F013BF9D041EA0C0195E70CEAD153C0
:100E500092EA0C0F08D142027FF47DAF93EA0C0FA7
:100E60007FF470AF084676E793EA0C0F04D14B028B
:100E70003FF44CAF08466EE730F0004C18BF31F03D
:100E8000004CCAD130F000427FF45CAF31F0004337
:100E90007FF43CAF5FE700BF4FF0FF3C06E000BFD0
:100EA0004FF0010C02E000BF4FF0010C4DF804CDF3
:100EB0004FEA40024FEA41037FEA226C18BF7FEA03
:100EC000236C11D001B052EA530C18BF90EA010F05
:100ED00058BFB2EB030088BFC81738BF6FEAE17094
:100EE00018BF40F0010070477FEA226C02D15FEA30
:100EF000402C05D17FEA236CE4D15FEA412CE1D09C
:100F00005DF8040B704700BF844608466146FFE762
:100F10000FB5FFF7C9FF002848BF10F1000F0FBD44
:100F20004DF808EDFFF7F4FF0CBF012000205DF83D
:100F300008FB00BF4DF808EDFFF7EAFF34BF0120C2
:100F400000205DF808FB00BF4DF808EDFFF7E0FF5B
:100F500094BF012000205DF808FB00BF4DF808EDAC
:100F6000FFF7D2FF94BF012000205DF808FB00BF0F
:100F70004DF808EDFFF7C8FF34BF012000205DF8F1
:100F800008FB00BF4FEA4002B2F1FE4F0FD34FF013
:100F90009E03B3EB12620DD94FEA002343F00043E6
:100FA00010F0004F23FA02F018BF404270474FF094
:100FB0000000704712F1610F01D1420205D110F01B
:100FC000004008BF6FF0004070474FF000007047CE
:100FD00042000ED2B2F1FE4F0BD34FF09E03B3EBA3
:100FE000126209D44FEA002343F0004323FA02F0CF
:100FF00070474FF00000704712F1610F01D14202BB
:1010000002D14FF0FF3070474FF00000704700BF33
:101010007BB972B90029BEBF00204FF0004106E045
:1010200008BF00281CBF6FF000414FF0FF3000F0F8
:10103000A9B9ADF1080C6DE904CE002909DB002B3C
:101040001ADB00F035F8DDF804E0DDE9022304B036
:101050007047404261EB4101002B1BDB00F028F898
:10106000DDF804E0DDE9022304B0404261EB410118
:10107000524263EB43037047524263EB430300F079
:1010800017F8DDF804E0DDE9022304B0404261EB2B
:1010900041017047524263EB430300F009F8DDF869
:1010A00004E0DDE9022304B0524263EB43037047DE
:1010B0002DE9F047089E0D4604468846002B4DD189
:1010C0008A42944668D9B2FA82F252B101FA02F326
:1010D000C2F1200120FA01F10CFA02FC41EA0308F6
:1010E00094404FEA1C41B8FBF1F71FFA8CFE01FB5C
:1010F000178807FB0EF0230C43EA084398420AD9ED
:101100001CEB030307F1FF3580F01E81984240F28B
:101110001B81023F63441B1AB3FBF1F001FB103348
:1011200000FB0EFEA4B244EA0344A6450AD91CEB18
:10113000040400F1FF3380F00981A64540F20681E6
:10114000644402380021A4EB0E0440EA07401EB1BB
:101150000023D440C6E90043BDE8F0878B4208D99C
:10116000002E00F0EE800021C6E900050846BDE82B
:10117000F087B3FA83F100294AD1AB4202D382420D
:1011800000F2FC80841A65EB030301209846002ED0
:10119000E2D0C6E90048DFE702B9FFDEB2FA82F228
:1011A000002A40F09180A1EB0C0001214FEA1C477E
:1011B0001FFA8CFEB0FBF7F307FB1300250C45EA82
:1011C00000450EFB03F0A84208D91CEB050503F10E
:1011D000FF3802D2A84200F2CE8043462D1AB5FB5A
:1011E000F7F007FB10550EFB00FEA4B244EA0544DD
:1011F000A64508D91CEB040400F1FF3502D2A64530
:1012000000F2B6802846A4EB0E0440EA03409EE7B5
:10121000C1F120078B4022FA07FC4CEA030C25FAA7
:1012200007FA4FEA1C49BAFBF9F820FA07F309FB61
:1012300018AA8D401FFA8CFE1D4300FA01F308FB2B
:101240000EF02C0C44EA0A44A04202FA01F20BD937
:101250001CEB040408F1FF3A80F08880A04240F2C1
:101260008580A8F102086444241AB4FBF9F009FB54
:10127000104400FB0EFEADB245EA0444A64508D971
:101280001CEB040400F1FF356CD2A6456AD9023884
:10129000644440EA0840A0FB0295A4EB0E04AC4273
:1012A000C846AE4656D353D0002E69D0B3EB0802E1
:1012B00064EB0E0422FA01F304FA07F71F43CC4053
:1012C000C6E90074002147E70CFA02FCC2F12001D4
:1012D00025FA01F34FEA1C4720FA01F195400D432E
:1012E000B3FBF7F107FB11331FFA8CFE280C40EA21
:1012F000034001FB0EF3834204FA02F408D91CEB0D
:10130000000001F1FF382FD283422DD90239604409
:10131000C01AB0FBF7F307FB1300ADB245EA004576
:1013200003FB0EF0A84208D91CEB050503F1FF38BA
:1013300016D2A84214D9023B6544281A43EA014157
:1013400038E73146304607E72F46E4E61846F9E627
:101350004B45A9D2B9EB020865EB0C0E0138A3E7A7
:101360004346EAE7284694E74146D1E7D0467BE783
:101370006444023847E7023B65442FE7084606E726
:101380003146E9E6704700BF034613F8012B002AF7
:10139000FBD1181A0138704710F8012B11F8013BE6
:1013A000012A28BF9A42F7D0D01A70474FF0FF3C6D
:1013B00006E000BF4FF0010C02E000BF4FF0010C4F
:1013C0004DF804CD4FEA410C7FEA6C5C4FEA430CC8
:1013D00018BF7FEA6C5C1BD001B050EA410C0CBF17
:1013E00052EA430C91EA030F02BF90EA020F002079
:1013F000704710F1000F91EA030F58BF994208BFE0
:1014000090422CBFD8176FEAE37040F0010070479C
:101410004FEA410C7FEA6C5C02D150EA013C07D1F3
:101420004FEA430C7FEA6C5CD6D152EA033CD3D03E
:101430005DF8040B704700BF8446104662468C4638
:101440001946634600E000BF01B5FFF7B7FF00286B
:1014500048BF10F1000F01BD4DF808EDFFF7F4FF94
:101460000CBF012000205DF808FB00BF4DF808ED1F
:10147000FFF7EAFF34BF012000205DF808FB00BF42
:101480004DF808EDFFF7E0FF94BF012000205DF864
:1014900008FB00BF4DF808EDFFF7CEFF94BF012019
:1014A00000205DF808FB00BF4DF808EDFFF7C4FF12
:1014B00034BF012000205DF808FB00BF4FEA410C5B
:1014C0007FEA6C5C02D150EA013C0AD14FEA430C3E
:1014D0007FEA6C5C02D152EA033C02D14FF000007B
:1014E00070474FF00100704710B50446102009F016
:1014F000B1FF206040B100230370074B252207494C
:10150000022008F0E1FC10BD054B1E220349022019
:1015100008F0DAFCF7E700BF0C080108D40701085F
:10152000B40701082DE9F0418AB040F2931001F0B0
:101530003FFF2A4C204601F07DFC294802F0D4FBF5
:1015400005460190E668274802F02CF92946B04785
:1015500006460290D4F81880234F384602F03EF831
:101560003146C04706460390D4F80C801F4802F06D
:1015700019F93146C04706460490D4F81880384619
:1015800002F02CF83146C04706460590E768184837
:1015900002F07EFB3146B84706460690E7681548DC
:1015A00002F0ECFA3146B84706460790E768124861
:1015B00002F090FC3146B84706460890E7680F48AD
:1015C00002F01AFC3146B8470246099029462046E7
:1015D00001F0F2FD20460AB0BDE8F08110040020C1
:1015E000E0090108900901089A99993E60090108EB
:1015F000DC090108C0090108F0090108E80901082F
:101600002DE9F041002435E01C4B1E68650004EB19
:10161000440306EB8306D6F83007FEF7FDFE0022F2
:10162000174BFEF751FF0EF0D5FA2544FFF75EF990
:10163000144F7855D6F83407FEF7EEFE0022104B13
:10164000FEF742FF0EF0C6FA05F10108FFF74EF96A
:1016500007F80800D6F83807FEF7DEFE0022084B30
:10166000FEF732FF0EF0B6FA0235FFF73FF9785574
:101670000134A4B2952CC7D9BDE8F0816C260020B6
:10168000000030409804002030B587B000258DF868
:10169000175080238DF81630FFF7B2FF4E4B1868B5
:1016A00001F080FE8DF8175021E09DF81740E4B25C
:1016B0009DF81730DBB2494AD056FEF79BFE44A393
:1016C000D3E90023FFF72AF80022454BFEF7FCFE82
:1016D000CDE902010094434B3D224349022008F02A
:1016E000F3FB9DF817300133DBB28DF817309DF80E
:1016F0001730DBB20C2B14D89DF81730DBB2374A09
:10170000D2569DF816305BB29A42CEDB9DF8173068
:10171000DBB2324AD3568DF816309DF817506DB2B1
:10172000C3E79DF816305BB23E2B0DDD0C2D16D0B5
:101730006B1C0D2B0DD8DFE803F00915191D2125B1
:10174000292D3135393D41454FF0FF3527480AF005
:1017500055FD27480AF034FE284607B030BD4FF04B
:10176000FF35F3E723480AF049FDF2E722480AF083
:1017700045FDEEE721480AF041FDEAE720480AF07E
:101780003DFDE6E71F480AF039FDE2E71E480AF092
:1017900035FDDEE71D480AF031FDDAE71C480AF0A6
:1017A0002DFDD6E71B480AF029FDD2E71A480AF0BA
:1017B00025FDCEE719480AF021FDCAE718480AF0CE
:1017C0001DFDC6E717480AF019FDC2E7AFF3008018
:1017D0000000000000C05F400C0400205C060020F8
:1017E000000059402C080108440801087808010845
:1017F000180901088808010894080108A0080108D0
:10180000AC080108B8080108C4080108D00801089C
:10181000DC080108E8080108F0080108FC080108D4
:10182000040901080C09010808B54FF400510448E7
:1018300001F054FAFFF776FE024B186008BD00BFB6
:101840006C0600200C04002008B5172002F0A2FF4F
:10185000024B1B6801221A7008BD00BF6C260020D5
:1018600008B5172002F0A4FF024B1B6802221A7071
:1018700008BD00BF6C26002008B500F027FC08BD9D
:101880002DE9F84F0446D0F800A0D0F80880414672
:101890005046FFF7B1F90546D4F80490D4F80CB0DF
:1018A00059464846FFF7A8F901462846FFF79AF837
:1018B0000546FEF7B1FD06460F4671492846FFF77B
:1018C00039FB20B96F492846FFF752FB98B33046E1
:1018D00039460EF0CBF90546C0EBC0784FEA480810
:1018E000D4F804902068FEF797FD06460F46484658
:1018F000FEF792FD32463B460EF0E2F906460F46F1
:10190000614B1C684046FEF775FD32463B46FEF7CC
:10191000DBFDFFF713F860602846FEF76BFD56A36A
:10192000D3E90023FEF7D0FDFFF708F8A0600023FD
:10193000E360BDE8F88F41464046FFF755F805469D
:1019400001465846FFF758F9064651465046FFF7FC
:101950004BF801464846FFF74FF901463046FFF77E
:1019600043F882464FF040414846FFF745F90146AB
:101970004846FFF741F9064629464046FFF73CF93D
:1019800001463046FFF72EF84FF07E51FFF72CF856
:10199000FEF742FD06460F465046FEF73DFD324635
:1019A0003B460EF08DF9384D2E68FEF7C7FFF0600C
:1019B0004FF040416068FFF71FF9E168FFF71CF93D
:1019C000064620680146FFF70FF8A168FFF714F9F3
:1019D00001463046FFF708F8FEF71EFD0EF048F905
:1019E0002E68FEF7ABFFB060D4F80490D4F80880FE
:1019F00041464846FFF700F982462668E7683946BF
:101A00003046FFF7F9F801465046FEF7EDFF014674
:101A1000FEF7EAFF044631463046FFF7EDF806468A
:101A200049464846FFF7E8F801463046FEF7DCFF36
:101A3000064641464046FFF7DFF801463046FEF7CE
:101A4000D1FF064639463846FFF7D6F801463046FC
:101A5000FEF7C8FFFEF7E0FC06460F462046FEF7FD
:101A6000DBFC32463B460EF02BF92C68FEF766FF96
:101A700060605EE7AFF30080E0864454FB21F93FED
:101A80000080FFBE0080FF3E6C2600202DE9F0475D
:101A900082B0354E3768DFF8D4A0CAF80070344DF4
:101AA000286830603349FFF7A7F8044632493846C2
:101AB000FFF7A2F801462046FEF796FF07462F4B98
:101AC0001C682F492069FFF797F801463846FEF752
:101AD0008BFF07462860D6F80490CAF8049068681F
:101AE00070602449FFF788F8804623494846FFF78D
:101AF00083F801464046FEF777FF8046204960693B
:101B0000FFF77AF801464046FEF76EFF80466860B0
:101B1000D6F80890CAF80890A868B0601549FFF791
:101B20006BF8064614494846FFF766F8014630460A
:101B3000FEF75AFF06461249A069FFF75DF8014615
:101B40003046FEF751FF0346A860626A216AE069E9
:101B50000193CDF800803B4605F0A8FF08B1FFF7E0
:101B60008FFE02B0BDE8F087882600207C2600208A
:101B7000942600205AF8F63F5D896EBF6C2600203F
:101B8000D5A9183B000000002DE9F04F89B00646AA
:101B900006AB06223B21682002F065FA9DF818305A
:101BA0009DF8190000EB032080B2DFF87C91B9F8B2
:101BB0000030C01A00B2ADF804009DF81A309DF84C
:101BC0001B5005EB0325ADB2B9F80230ED1A2DB26A
:101BD000ADF806509DF81C309DF81D4004EB032421
:101BE000A4B2B9F80430E41A24B2ADF80840DFF822
:101BF0003C81D8F800A0FEF7FDFB00224C4BFEF71D
:101C000063FCFEF79BFE770006EB460B0AEB8B0BA3
:101C1000CBF828002846FEF7EDFB0022444BFEF7E8
:101C200053FCFEF78BFECBF82C002046FEF7E2FBC0
:101C300000223F4BFEF748FCFEF780FECBF8300059
:101C4000DBF82830CAF81030DBF82C30CAF8143032
:101C5000CAF8180004AB06224321682002F003FAF8
:101C60009DF810309DF8110000EB032080B2B9F808
:101C70000030C01A00B2ADF804009DF812309DF893
:101C8000135005EB0325ADB2B9F80230ED1A2DB2B1
:101C9000ADF806509DF814309DF8154004EB032470
:101CA000A4B2B9F80430E41A24B2ADF80840D8F868
:101CB0000080FEF79FFB1AA3D3E90023FEF72EFD59
:101CC000FEF73CFE07EB060908EB8909C9F8300767
:101CD0002846FEF78FFB12A3D3E90023FEF71EFD73
:101CE000FEF72CFEC9F834072046FEF783FB0CA351
:101CF000D3E90023FEF712FDFEF720FEC9F83807EE
:101D0000D9F83037C8F81C30D9F83437C8F8203043
:101D1000C8F8240009B0BDE8F08F00BFAFF3008021
:101D20002121CA175C75B040702600206C26002067
:101D30000000203F10B582B0044640F6486009F02C
:101D400089FB2060002C34D00023037022681361CB
:101D5000536193612268D3611362536222685360B6
:101D60009360D3602268C2F83037C2F83437C2F8C3
:101D7000383722689362D36213632368124AC3F828
:101D8000382E2368114AC3F8442E2368104AC3F83A
:101D9000402E23680F4AC3F83C2E0F4BD2220F4926
:101DA000022008F091F82368D3F8383E984702B033
:101DB00010BD40F648630093094BC022074902203A
:101DC00008F082F8F3E700BF7918000861180008EE
:101DD000491800088D1A0008DC1E0108A81E010819
:101DE000881E010810B50446012802D0202C07D017
:101DF00010BD0F4BD9220F49022008F065F8F5E716
:101E00000D4C2078FFF7C0FE23780133DBB223703E
:101E1000952BEDD900222270084BE42205490120C0
:101E200008F052F8064B1B68D3F8443E9847DFE7AA
:101E3000F81E0108A81E0108A02600200C1F01089A
:101E40006C26002010B5044C2368DB689847236893
:101E500000221A7010BD00BFA426002008B500F0B3
:101E6000D9F9024B1B6800221A7008BDA426002075
:101E700008B500F0C5F9024B1B6801221A7008BDB5
:101E8000A426002038B5042806D8DFE800F0030AAD
:101E9000460D3200FFF7E2FF214B1B6800221A704B
:101EA00038BDFFF7E5FFF7E70024042CF4D81C4DFC
:101EB0002B689B689847642002F00EFC2B68DB6857
:101EC0009847642002F008FC0134E4B2EDE7144DB9
:101ED0002B689B689847322002F0FEFB2B68DB687A
:101EE0009847322002F0F8FB0134E4B2092CEED915
:101EF000D2E70024FAE70A4D2B689B689847FA203E
:101F000002F0EAFB2B68DB689847FA2002F0E4FB5A
:101F10000134E4B2032CEED9BEE70024FAE700BF97
:101F2000A426002010B582B00446142009F092FACD
:101F30002060C0B10023037023680F4A5A602368F1
:101F40000E4A9A6023680E4ADA6023680D4A1A61C5
:101F50000D4B7D220D49022007F0B6FF23685B6818
:101F6000984702B010BD14230093094B7222074911
:101F7000022007F0A9FFF4E7451E0008711E0008C3
:101F80005D1E0008851E0008701F01083C1F010827
:101F90001C1F010810B5002406E00A4B53F824105A
:101FA00009480AF02BF90134062CF6DD07480AF03F
:101FB00007FA074907480AF021F907480AF000FA2A
:101FC00010BD00BF0C2501088C1F0108A01F0108CF
:101FD000B01F0108B81F0108C81F010890F90030A0
:101FE000002B01DD002070470FDB90F90130002B42
:101FF00001DD012070470ADB90F90230002B08DC7C
:1020000001DB072070470620704704207047052039
:1020100070470220704738B50546FFF7DFFF0446DA
:10202000E81CFFF7DBFF44EAC00424B2A81DFFF759
:10203000D5FF44EA801080B238BD000010B588B0EA
:1020400002A905A807F05CF9072801D008B010BD67
:1020500001A806F01FFD019C0598FEF779FD2146B9
:10206000FEF7CAFDFEF78EFF05900698FEF770FD9D
:102070002146FEF7C1FDFEF785FF06900798FEF7A3
:1020800067FD2146FEF7B8FDFEF77CFF079005A827
:1020900007F06CFA0DF1020006F022FDBDF80220F7
:1020A000029B02FB03F30293039B02FB03F30393E4
:1020B000049B02FB03F3049302A807F0DFFA024833
:1020C0000AF07EF9C2E700BF2825010800B583B0F9
:1020D000172002F06DFB01F095FF002301938DF8AE
:1020E00000306B4601227521682001F0BCFF9DF88D
:1020F0000030682B06D1002006F072FF78B103B0E3
:102100005DF804FBBFF34F8F3049CA6802F4E06208
:102110002F4B1343CB60BFF34F8F00BFFDE77820F9
:1021200006F0EAFE70B3782006F008FD70B3642074
:1021300006F092FE70B307F067F978B32548FFF711
:102140006AFF07F06DF968B340F2731007F02EFDD7
:1021500060B3642007F00CFB60B3FFF76FFF012052
:1021600007F084F850B301A807F000FA50B3042038
:1021700006F0CCFB4FF4FA7006F05AFB16480AF052
:102180001FF9BCE715480AF01BF9CCE714480AF020
:1021900017F9CCE713480AF013F9CCE712480AF014
:1021A0000FF9CBE711480AF00BF9CDE710480AF018
:1021B00007F9CEE70F480AF003F9CEE70E480AF018
:1021C000FFF8D0E70D480AF0FBF8D0E700ED00E09B
:1021D0000400FA05000000209C2601084C25010897
:1021E0006C25010890250108B8250108EC25010897
:1021F00014260108382601085C26010880260108FB
:1022000008B501220221024802F081FC08BD00BF8E
:102210000008014008B500220221024802F077FCC4
:1022200008BD00BF000801402DE9F04F97B082467D
:10223000019112921C46DDF88080BDF884300F9326
:10224000BDF88890BDF88C300293BDF890300393B0
:10225000BDF894300493BDF898301393BDF89C30CA
:102260001493BDF8A0300593BDF8A4300693BDF8D3
:10227000BC301093BDF8C03015939DF8B430012BDD
:1022800005D000230E9300230C939B46B5E00E93DC
:10229000F9E72C9B0C9A53F8223001229A405210F5
:1022A0002DE059191AF90110981918F9000000FBCE
:1022B000012201339C42F4DC013777451DDA079B8C
:1022C00006990CFB013304995B1A0899059807FBE2
:1022D000001503996D1A019903FB015504FB05F5DF
:1022E0000BFB04F6029B06FB03F30CFB097604FBD5
:1022F00006F603FB09660023DCE70CF1010C099BE1
:102300009C4501DA0A9FD8E72C9B0C9953F82130A1
:1023100042FA03F313F1800F03DB7F2B03DD7F23EE
:1023200001E06FF07F030D99109A0B9800FB0212E9
:102330000F9800FB02B22E9883540B4601330D9385
:10234000109B0D9A934240DD139B0D9A02FB03F301
:102350000893039AA3EB020E069D6A1E1198A2EB46
:10236000000C9CFBF5FC2CEAEC7C059E711EA1EB9D
:102370000E0393FBF6F323EAE3730A93129B1B1AF3
:10238000134493FBF5F3029A9342A8BF13460993B3
:10239000019BA3EB0E0E8E449EFBF6FECE45A8BF1E
:1023A000CE462A9B002B3FF474AF13F90B202B9BD6
:1023B0000C9853F8203002FA03F12C9B53F820308C
:1023C00001229A4001EB620299E70B9B01330B93C8
:1023D000159B0B9A93420ADD149B0B9A02FB03F3A5
:1023E0000793049A9B1A119300230D93A8E70BF10E
:1023F000010B0C9B0E9A13440C930F9B5B4502DD63
:1024000000230B93E4E717B0BDE8F08F2DE9F04F00
:1024100089B004908A4603920793BDF8482006923B
:10242000BDF84C2001929B080293149B0593B8E0E1
:102430000121019B994049100B460A460846D6E007
:1024400096F900E096F9017096F9028096F903C0BA
:102450009AF900B09AF901909AF902509AF903405A
:1024600008FB05F50EFB0B55294408FB04F40EFB95
:10247000094948449AF904B09AF905909AF9065026
:102480009AF9074008FB05F50EFB0B552A4408FB9B
:1024900004F40EFB094E73449AF908809AF909E096
:1024A0009AF90A509AF90B400CFB05F507FB085501
:1024B00029440CFB04F407FB0E4420449AF90C80D9
:1024C0009AF90DE09AF90E509AF90F400CFB05F5B8
:1024D00007FB08552A440CFB04FC07FB0EC73B44D2
:1024E000009C013CA4B2009404360AF1100A009C3E
:1024F000002CA5D1039C04F0030415E016F9015B40
:102500009AF9007005FB07119AF9017005FB0700A5
:102510009AF9027005FB07229AF9037005FB07334D
:10252000013CA4B20AF1040A002CE7D1019C21412C
:1025300011F1800F03DB7F2903DD7F2101E06FF0C4
:102540007F01159C21700199084110F1800F03DB78
:102550007F2803DD7F2001E06FF07F001599487030
:1025600001990A4112F1800F03DB7F2A03DD7F22EC
:1025700001E06FF07F0215998A70019A134113F1FF
:10258000800F03DB7F2B03DD7F2301E06FF07F03F0
:10259000159AD370029B013B9BB2029313460433FE
:1025A0001593029B2BB3039B9B080093149B002B5A
:1025B0003FF43EAF059E96F90010069DA940012309
:1025C000019803FA00F401EB640196F90100A840B8
:1025D00000EB640096F90220AA4002EB640296F92F
:1025E0000330AB4003EB6403344604340594049E8B
:1025F0007DE7079B03F00304039DDDF818E0DDF899
:1026000004C0149F159E1CE0012202FA0CF2521025
:1026100023E013F9010B1AF9018B08FB00220131A9
:102620008D42F6DC42FA0CF212F1800F03DB7F2AB6
:1026300003DD7F2201E06FF07F0206F8012B013CF1
:10264000A4B26CB1002FDFD017F9012B02FA0EF201
:10265000012303FA0CF302EB6302049B0021DFE782
:1026600009B0BDE8F08F70B56FF4807E002300E004
:1026700001338B4205D210F903C0F445F8DDE6467C
:10268000F6E7AEF1080E0FFA8EFE00231D4608E0B5
:102690004FF0000C5FFA8CFC012404FA0CFC65443A
:1026A00001338B420CD210F903C0F445F8DDBCEBCA
:1026B0000E0CEDD4BCF11F0FECDD4FF01F0CE9E761
:1026C0004FF4801696FBF5F6002307E04FF0000C60
:1026D00014E06FF07F0C02F804C001331C468B42FB
:1026E0001ED2C556754516DD0EF10D0CBCEB050C62
:1026F000ECD4BCF11F0F01DD4FF01F0C5FFA8CFC16
:1027000046FA0CFC1CF1800FE3DBBCF17F0FE2DD2D
:102710004FF07F0CDFE74FF0000C02F804C0DCE75D
:1027200070BD0023934219D200B506E04FEAEC1CBD
:102730008EF800C0013393420ED200EB030E10F965
:1027400003C0BCF1000FF5DA0CFB01FCBCF1000F7B
:10275000ECDA0CF17F0CE9E75DF804FB7047000050
:102760002DE9F04F97B08246019112929846DDF81C
:102770008090BDF884300F93BDF888B0BDF88C30E0
:102780000293BDF890300393BDF894300493BDF8E4
:1027900098301393BDF89C301493BDF8A030059386
:1027A000BDF8A4300693BDF8BC301093BDF8C0301E
:1027B00015939DF8B430012B0AD000230E9300230B
:1027C0000C930093CDF88090D146DDF880A0D3E043
:1027D0000E93F4E72C9B0C9A53F82230012000FA58
:1027E00003F343FA00F1D81731E053193BF91330E2
:1027F00094191AF9044004FB03F3591840EBE370F1
:1028000001329045F1DC013777451EDA079B069AC5
:102810000CFB0233049A9B1A089A059C07FB0425BB
:10282000039AAD1A019A03FB025508FB05F5009BBC
:1028300003FB08F6029B06FB03F30CFB097606FB81
:1028400008F603FB09660022DBE70CF1010C099B8B
:102850009C4501DA0A9FD7E72C9B0C9A53F822304B
:10286000C3F12002B3F1200421FA03F300FA02F2CB
:1028700043EA020302D440FA04F423431A4613F550
:10288000004F05DBB3F5004F03DB47F6FF7200E0B6
:10289000404A0D9910980B9C04FB001300980F9C64
:1028A00004FB03032E9820F813200B4601330D93ED
:1028B000109B0D9A934243DD139B0D9A02FB03F389
:1028C0000893039AA3EB020E069C621E1198A2EBDA
:1028D000000C9CFBF4FC2CEAEC7C059D691EA1EB32
:1028E0000E0393FBF5F323EAE3730A93129B1B1A7F
:1028F000134493FBF4F3029A9342A8BF134609933F
:10290000019BA3EB0E0E8E449EFBF5FECE45A8BFA9
:10291000CE462A9B002B3FF45DAF009A9A562B9B24
:102920000C9853F8203002FA03F12C9B53F8203016
:10293000012202FA03F001EB60000146C01786E7AE
:102940000B9B01330B93159B0B9A93420ADD149B4F
:102950000B9A02FB03F30793049A9B1A119300232B
:102960000D93A5E74B46D9469B46009B0133009348
:102970000C9B0E9A13440C930F9B009A934205DD17
:1029800000230B935B46CB469946DCE717B0BDE8C6
:10299000F08F00BF0080FFFF0023934219D200B5E3
:1029A00006E04FEAEC1C20F80EC0013393420ED231
:1029B0004FEA430E30F913C0BCF1000FF5DA0CFBFF
:1029C00001FCBCF1000FECDA0CF17F0CE9E75DF8DB
:1029D00004FB7047024608B904E05A69536A1B6851
:1029E000002BFAD110467047486108467047037AB9
:1029F0000BB1013B0372037A03B94372704710B500
:102A0000046A03E02069FFF7F2FFA468002CF9D103
:102A100010BD08B5036913B11868FFF7E8FF08BDDA
:102A2000884209D00346006820B18B42FAD14FF0AA
:102A3000FF30704719607047002070478446036874
:102A40000020014633B19A6A101841F100011B6859
:102A5000002BF7D1CCF880007047000038B561B189
:102A600004460D460068FFF7B5FF60B1416A2A6A67
:102A70000A60436A1360002038BD044809F0A0FCD6
:102A80006FF00600F8E72560F6E700BFB026010802
:102A900008B50023072B07D803EB430200EB8202A3
:102AA000127A0AB10133F5E7082B04D003EB430394
:102AB00000EB830008BD024809F082FC0020F9E722
:102AC000F426010838B510B10446002506E00025BB
:102AD00006E0E06800F0B0FC0544A468002CF8D1E2
:102AE000284638BD2DE9F84305460C46006AFFF735
:102AF000E9FF0746686AFFF7E5FF8046AE6A2B6983
:102B0000DBB1D3F804902B7F0B2B19D003EB4303DD
:102B1000444A02EB83022146434809F06FFB6B698C
:102B200003B3197A414B03EBC101414809F066FB3D
:102B3000282009F0C3FB00241CE04FF00009E2E765
:102B400003EB4303374A02EB83022146394809F07D
:102B500055FB2B6B197D384B03EBC101374809F04E
:102B60004DFBDCE7364809F049FBE1E7354809F061
:102B700045FB0134022C0BDC6B6ADB685A7CA242F9
:102B8000F4DD5B6833F814102F4809F037FBF0E7E9
:102B90002E4809F033FBC6B142F20F739E421FD993
:102BA0002B4B9E4221D92B4B9E4226D82A49A1FB72
:102BB0000631890C294A02FB1166294AA2FB06321A
:102BC000520B284809F01AFB02E0274809F016FBCF
:102BD0004B4642463946254809F010FBBDE8F883CC
:102BE0003146234809F00AFBF2E72249A1FB0631EE
:102BF0008909214809F002FBEAE7710A1F4BA3FB90
:102C00000131C9091E4A02FB116602F13F5202F569
:102C1000A0226B32A2FB0632920D1A4809F0EEFA9E
:102C2000D6E700BF642C010860270108042C0108C6
:102C30008427010870270108442C01087C2701081B
:102C40008C270108A027010898270108A827010858
:102C50003F420F00FFC99A3B83DE1B4340420F00F7
:102C60005917B7D1C8270108AC270108E027010888
:102C7000B8270108D34D6210C0270108834B040018
:102C800000CA9A3BD427010870B50646104809F0DF
:102C9000B5FA002507E0202009F010FB09E00D48F7
:102CA00009F0ACFA0135072D0EDC2C4615F0030FA8
:102CB000F1D004EB440406EB8404217A0029EED021
:102CC000054809F09BFAEDE70A2009F0F7FA70BD14
:102CD000082501086C270108F0270108034B18603C
:102CE000034B1960034B00221A607047AC2600208A
:102CF000B4260020B02600207047B0FBF1F301FBA2
:102D000013030BB1C91A08447047000008B5042129
:102D1000FFF7F3FF0B4B1A6813180B4909688B4236
:102D200005D20A4908681044064A136008BD21B953
:102D3000074809F063FA0020F8E7064809F05EFA50
:102D4000F9E700BFB0260020B4260020AC26002002
:102D5000F42701084C28010838B50421FFF7CDFFFE
:102D60000446FFF7D3FF054638B1054A13682344EC
:102D700013602246002108F09BFB284638BD00BFA7
:102D8000A826002058B1036853B110B50446406826
:102D90000028FBD10820FFF7DFFF606010BD7047FF
:102DA0007047034678B1026872B110B51C469B6843
:102DB000002BFBD11C20FFF7CFFFA06010B163698F
:102DC0004361A06810BD7047704770B50E4669B189
:102DD000044648B1486AFFF7D5FF0546206AFFF769
:102DE000E0FF2860736A0360204670BD0C46FBE775
:102DF0000EB470B583B0079E054668B108AB019369
:102E0000002407E0019B1A1D019219682846FFF76C
:102E1000DCFF0134B442F5DB284603B0BDE8704066
:102E200003B0704708B513460A460221FFF7E0FFDA
:102E300008BD000010B580B104468822002108F0CA
:102E400037FB2046084B8360084BC360084B036187
:102E5000084B4361084B836110BD8820FFF77CFF5E
:102E6000012380F88530EDE75D2A0008CB2D0008AE
:102E7000252E0008F12D0008E9290008034630B18D
:102E8000002001E001305B68002BFBD1704700207F
:102E900070472DE9F04383B080460D461646012267
:102EA00001921F46002B51D101AF4FE023681B69EF
:102EB0002361A468002CF9D12B6A13B19A68002A07
:102EC00068D1AB682846984729464046FFF7A8FDD9
:102ED0002C69BCB13046FFF7DBFD20602B691A6816
:102EE000137A013313722B691B6801225A722C6901
:102EF00004216068FFF701FF22685368834238BFEE
:102F00000346536039684B1C3B602846FFF7EAFDD7
:102F10006C6A002C00F0D080A368002B68D1636835
:102F2000002B65D12B6A1A7E12B1227E002A3DD178
:102F30001B6923613046FFF7A7FE2846FFF769FDAE
:102F40006B6A1B68002B00F0BF805D69002D00F0EC
:102F5000A9802C6A2368002BACD12369002BABD14C
:102F60003046FFF795FD8146037A01330372E0682E
:102F700000F062FA0421FFF7C0FED9F80430834262
:102F800038BF0346C9F80430C4F81090012389F80B
:102F9000093091E7002B94D01969002900F0848052
:102FA0004A7A012A40F085809B68F3E73046FFF7B4
:102FB0006FFD0446002800F08180012303724372F4
:102FC0006B6AD86800F038FA0421FFF796FE636850
:102FD000834238BF034663606B6A1C613046FFF76B
:102FE00053FE2846FFF70BFD2846FFF712FDA7E723
:102FF0002B6A1A7E12B3227E02B3002C37D02368CC
:10300000002B34D03046FFF743FD2061002858D014
:10301000E06800F011FA0421FFF76FFE226953689F
:10302000834238BF034653602046FFF727FF2369DA
:103030001872236901225A72A468DEE71B692361B2
:103040006C6A2046FFF71AFF2269137A0344137251
:103050006B6A1B6901225A723046FFF715FE28463B
:10306000FFF7CDFC2846FFF7D4FC6D6A15E030462B
:10307000FFF70AFE2846FFF7C2FC2846FFF7C9FC07
:10308000F3E73B46324649694046FFF702FF646872
:1030900014B121680029F4D1AD680DB12C46F7E7D1
:1030A000002003E0002001E06FF0070003B0BDE85E
:1030B000F0836FF00700F9E70020F7E76FF00600F4
:1030C000F4E76FF00600F1E70020EFE770B5064681
:1030D0000C4809F093F800252C460AE004EB440361
:1030E00006EB83035A6A15442146074809F086F81F
:1030F0000134072CF2D92946044809F07FF8284604
:1031000070BD00BF9C280108BC280108C828010820
:103110004FF0000C6346072B14D830B403EB430286
:1031200000EB8202546A54B101EB0C0503EB43023D
:1031300000EB82021562A4440133072BEED9002074
:1031400030BC704700207047006810E01969DA68E9
:10315000096811609B68002BF8D1436A04E0196983
:10316000DA68096811609B68002BF8D1006808B123
:10317000036AF0E77047000008B538B1036883B907
:103180000C4809F01DF94FF0FF3010E0094809F034
:1031900017F94FF0FF300AE0596AC96851601B689F
:1031A00033B11BB15A69002AF6D1F8E7002008BDF7
:1031B0000020FCE7F428010870B582B001230193D8
:1031C00000284CD01546044600294ED001606260AC
:1031D000002A50D0032304220021314809F00EF8C0
:1031E000304809F0EDF8304809F0EAF82F4B19683B
:1031F0002F4809F003F82F4809F0E2F82E4809F0AB
:10320000DFF82E4E304609F0DBF8224652F8200B4C
:1032100001AB0146FFF73DFE304609F0D1F8297FAA
:1032200003292DD12046FFF751FF0546FFF794FDF6
:10323000064670B3224B1968224808F0DFFF31467A
:103240002046FFF765FF2046FFF77EFF2046FFF789
:1032500093FF2046FFF7F2FB002002B070BD1A4832
:1032600009F0AEF84FF0FF30F7E7174809F0A8F87B
:103270004FF0FF30F1E70846FFF7ACFB6060A9E7CD
:1032800001EB4101114B03EB8101114808F0B6FF3E
:10329000C8E729460F4808F0B1FF6FF00600DCE7E9
:1032A00008290108202901086C290108B4260020FA
:1032B0008C290108AC290108C82901082C2A010819
:1032C000A8260020202B0108F4280108642C0108FE
:1032D000902A0108E02A010838B558B1044643682D
:1032E00098470546606908B1036898470023E36280
:1032F000284638BD024809F063F84FF0FF35F7E77C
:10330000F42801082DE9F84328B10F460646046861
:103310003CB101251CE01F4809F052F84FF0FF387E
:1033200035E01C4809F04CF84FF0FF382FE0227FC1
:1033300002EB42020346184901EB82022946174874
:1033400008F05CFF23E0BC4221D02468FCB10135C9
:10335000DCB12046FFF7C0FF80460028E7D1F369C3
:10336000002BF0D021463046984781460028EAD00D
:10337000237F03EB4303084A02EB83032A460146FB
:10338000074808F03BFFC84601E04FF00008404600
:10339000BDE8F883F4280108642C0108442B0108D7
:1033A000702B010808B50021FFF7ACFF08BD000035
:1033B00008B50F49A1FB0031490B0E4AA2FB00C31F
:1033C0005B09A2FB03C252094FF0640C0CFB1232E2
:1033D0000CFB130340F2931C604504D0064808F030
:1033E0000DFF012008BD054808F008FF0020F9E79F
:1033F0005917B7D11F85EB51A82B0108E82B0108FD
:10340000018042808380704710B504460123FFF796
:10341000F7FF204610BD10B504460123FFF7F0FF6B
:10342000204610BD10B504460123FFF7E9FF2046F2
:1034300010BD48610846704778B110B40146446831
:103440002088012304E034F8132002FB00F001334C
:103450004A7C9A42F7DC10BC7047002070474268F3
:10346000437C03F10043013B32F813007047000036
:103470002DE9F843054688461646012801D020BBB1
:10348000012604211420FFF738FC04464FEA4809BE
:1034900004214846FFF731FC204400EBC600FFF74B
:1034A0005BFC044670B100F11407476004214846F4
:1034B000FFF723FC0744A76007EB8607E76084F863
:1034C000118025742046BDE8F883024808F078FF93
:1034D0000024F7E7F02D010818B108B5FFF70CFC40
:1034E00008BD704770B504460E461546049A4274EE
:1034F00052001946406807F0CDFF9DF81430A374C0
:10350000A3681E60E3681D60204670BDF8B50446E0
:103510000E461546069A427452001946406807F056
:10352000B9FF237C012B0FD004279DF81C30A37416
:103530003A463146A06807F0ADFF3A462946E068B2
:1035400007F0A8FF2046F8BD2046FFF788FF870058
:10355000EBE70A8A038A9A4220D170B504460D46E9
:103560000B7C012B15D00426AB7CA3743246A968D2
:10357000A06807F08FFF3246E968E06807F08AFF2D
:103580006A7C627452006968606807F083FF2046B5
:1035900070BD0846FFF763FF8600E5E7002070472F
:1035A00038B503464068827C102A0BD0046893F932
:1035B0000C50FFF741FF024629462046FFF7B1F8BD
:1035C000002038BD046893F90C50FFF735FF024620
:1035D00029462046FFF7E0F9F2E7000038B5054636
:1035E0001020FFF7B9FB044658B1074B03600223D4
:1035F00003724FF086412846FDF7FEFAFDF7C2FC44
:103600002073204638BD00BFA135000804380328C8
:1036100001D9084670470720704770B50446036A11
:103620001A68D268DA60036AD868467CFFF717FF29
:103630000246656A31460020FFF71AFFE860636AB8
:10364000226AD168D868FFF784FF63693BB1626A78
:10365000D26894682168187AFFF7D8FF20600020AC
:1036600070BD83690BB10020704710B50446006D32
:10367000FFF732FF606DFFF72FFF002010BD2DE92F
:10368000F04395B08446036ADB689A7C102A45D0E3
:1036900018685968DCF850502F68DCF82430DB6873
:1036A0005C68DCF85420D2F800E0D3F800808B8806
:1036B0000A884988002612961196268810966688F0
:1036C0000F96CDF838802D7C0D95DCF858500C9570
:1036D000DCF85C500B95CDF828E0BCF84250099519
:1036E000BCF844500895BCF836500795BCF83850E3
:1036F0000695BCF83C500595BCF83E500495BCF8C6
:1037000030500395BCF832500295A488019400977C
:10371000FEF78AFD002015B0BDE8F08318685968EF
:10372000DCF850502F68DCF82430DB685C68DCF88B
:103730005420D2F80080D3F800908B880A884988FA
:103740000026129611962688109666880F96CDF858
:1037500038902D7C0D95DCF858500C95DCF85C50B9
:103760000B95CDF82880BCF842500995BCF8445020
:103770000895BCF836500795BCF838500695BCF84B
:103780003C500595BCF83E500495BCF8305003956C
:10379000BCF832500295A48801940097FEF7E0FF30
:1037A000B8E7000070B582B00546A420FFF7D4FA50
:1037B0000446002856D000F17C0604230377012339
:1037C00080F8783080F8943080F8A03000F1600103
:1037D000FFF72FFE206231462046FFF72AFE606287
:1037E000404B6360404BA360404BE360A561AB6816
:1037F0005B7C032B39D095F91D2095F91C10684688
:10380000FFF702FE00982063BDF80430A38695F907
:103810001F2095F91E106846FFF7FDFD009BC4F8B8
:103820003630BDF80430638795F9232095F92210CE
:103830006846FFF7F7FD009BC4F84230BDF804303E
:10384000A4F84630AB69E36495F8243084F8483036
:10385000AA682265EA6862652A69A2656A69E26502
:10386000012B27D0204602B070BD95F91C20012104
:103870006846FFF7C9FD00982063BDF80430A386B1
:1038800095F91E2001216846FFF7C5FD009BC4F88D
:103890003630BDF80430638795F92220012168464F
:1038A000FFF7C0FD009BC4F84230BDF80430A4F817
:1038B0004630C7E7B4F84230228E013A02FB03F3E8
:1038C00003EBD3735B10A387B4F84430628E013AE4
:1038D00002FB03F303EBD3735B10E3870023A4F82D
:1038E0004030BFE77F36000819390008633600080A
:1038F000844680B10139009800FB01F10131012AB1
:1039000003D0ACEB010C0CF1010C9C440CF1FF3C1E
:10391000BCFBF3F07047704730B583B00446036AD0
:103920001A68D268DA60036ADB68456AC26C597C3F
:103930000020FFF79DFDE860636A226AD168D868BD
:10394000FFF707FE236ADB689B681B68226D92689D
:1039500012681344A26D1168626AD26892685B1A99
:10396000136063693BB1626AD26895682968187A06
:10397000FFF74CFE2860236ADB685B681888B4F8A0
:1039800042300093E38E94F84820218EFFF7B0FF79
:10399000636ADB685B681880236ADB685B68588849
:1039A000B4F844300093238F94F84820618EFFF7D9
:1039B0009FFF636ADB685B685880E26C636ADB6860
:1039C0005B689A8094F84830012B13D0658E238E63
:1039D00003FB05F5236ADB685B689B8803FB05F541
:1039E000636AD868FFF728FD00FB05F5A562002093
:1039F00003B030BDB4F84430628E013A02FB03F3E9
:103A000003EBD3735B10E387B4F84230228E013AA4
:103A100002FB03F303EBD3735B10A3870023A4F82B
:103A20004030D3E730B585B00446036A1A68D268DF
:103A3000DA60036AD868437C032B46D0FFF70FFD9A
:103A40000246656A01210020FFF712FDE860236B42
:103A5000ADF80C30606A636BDA689968C068082357
:103A600001930123009303ABFFF750FD236ADB684A
:103A70009B681B68626B926812681344E26B116862
:103A8000626AD26892685B1A136063693BB1626ACA
:103A9000D26895682968187AFFF7B8FD2860236A0C
:103AA000D868FFF7C9FC236940005860236AD868CA
:103AB000FFF7C2FC0546636AD868FFF7BDFC00FB50
:103AC00005F5A562002005B030BD656A0022012120
:103AD0001046FFF7CDFCE8600123ADF80C30236BF6
:103AE000ADF80E30606A636BDA689968C0680823C5
:103AF00001930223009303ABFFF708FDB6E7836948
:103B00000BB10020704710B50446406BFFF7E4FC92
:103B1000A06BFFF7E1FC002010BD2DE9F04186B05D
:103B20000446036C1D68C36B1E68036AD868076887
:103B3000636BD3F80080FFF77FFC636AD968D1F824
:103B400004C04B7C03F10043013BA26B126809687F
:103B50002469246824683CF8133004940391029289
:103B6000B6B20196ADB2009582B241463846FEF734
:103B70004DFC002006B0BDE8F0810000F8B5054618
:103B80008820FFF7E9F8044650B300F1600700F120
:103B90007C0608230377012380F85C3080F87830B6
:103BA00080F8843000F14401FFF743FC206239467D
:103BB0002046FFF73EFC606226610A4B63600A4BB9
:103BC000A3600A4BE360A868FFF749FC2063EB6839
:103BD000A363AB6863632B69E3636B692364A561CB
:103BE0002046F8BD1B3B0008253A0008FF3A0008B4
:103BF0000020704770B584B00446036A1A68D26822
:103C0000DA60036AD868467CFFF729FC0246656AD9
:103C100031460020FFF72CFCE860236AD868FFF7E4
:103C20000BFCADF80C00606A236ADB68DA689968FF
:103C3000C068082301930123009303ABFFF766FCE0
:103C4000002004B070BD000038B56820FFF784F88C
:103C50000446B8B100F14C051A2303770A4B4360C0
:103C60000A4B8360012380F84830002380F86430D9
:103C700000F13001FFF7DDFB206229462046FFF707
:103C8000D8FB6062204638BDF13B0008F53B0008D8
:103C900010B50446FFF7D8FF00B1846110BD70B5C0
:103CA0000446036AD868467CFFF7D9FB0246656A7A
:103CB00031460020FFF7DCFBE860636A226AD168C6
:103CC000D868FFF746FC002070BD38B50346026A8D
:103CD000D0680468DD6BFFF7AFFB0246294620463B
:103CE00007F0D8FB002038BD70B586B005467820B7
:103CF000FFF732F8044600284ED000F15C0602239C
:103D00000377334B4360334B8360012380F8583093
:103D1000002380F8743000F14001FFF78AFB206235
:103D200031462046FFF785FB60626B685A7C012AAA
:103D300035D0022A3FD059688B884A88098802A862
:103D4000FFF75EFB02982063BDF80C30A3866B681A
:103D50001B68E3636B689B681B68A363238EADF8E5
:103D60001030638EADF81230A38EADF81430686851
:103D7000FFF775FB0246256A03210020FFF778FB59
:103D8000E860236AA16BD86808230193032300939A
:103D900004AB0022FFF7A6FB204606B070BD5B68AF
:103DA0001B88114602A8FFF72BFB02982063BDF881
:103DB0000C30A386CBE75A6853881288012102A8E9
:103DC000FFF71EFB02982063BDF80C30A386BEE708
:103DD000CB3C00089F3C000838B5C46B036ADB6825
:103DE0001D68436AD868FFF727FB0246294620462C
:103DF00007F050FB002038BD38B50546FFF774FFCB
:103E0000044650B1856103230377054B4360054B9E
:103E10008360036AD868FEF76FFF204638BD00BF95
:103E2000D93D00081B36000870B50446036A1A68BD
:103E3000D268DA60036AD868467CFFF710FB024656
:103E4000656A31460020FFF713FBE860636A226A67
:103E5000D168D868FFF77DFB636ADB689B6807223F
:103E60001A60002070BD38B50446036ADB681D681F
:103E7000436AD868FFF7E0FA0146636ADB681A68AC
:103E80002846FEF7F0FB002038BD000038B568205A
:103E9000FEF762FF0446B0B100F14C051223037730
:103EA0000A4B43600A4B8360012380F8483080F856
:103EB000643000F13001FFF7BCFA20622946204649
:103EC000FFF7B7FA6062204638BD00BF673E0008C2
:103ED000293E000810B50446FFF7D8FF00B1846101
:103EE00010BD000008B58021014800F009FE08BDA2
:103EF000000C014082B000EBC00020F06040019057
:103F000000BF019B5A1E0192002BF9D102B07047ED
:103F100008B502468021034800F0F9FD0520FFF7AF
:103F2000E9FF08BD000C014008B5024640210348E6
:103F300000F0EDFD0520FFF7DDFF08BD000C01409E
:103F400008B50120FFF7E4FF0120FFF7EDFF002097
:103F5000FFF7DEFF0020FFF7E7FF08BD38B5054695
:103F600000240BE0802020412840FFF7D1FF0120F2
:103F7000FFF7DAFF0020FFF7D7FF0134072CF1DD50
:103F800038BD10B50120FFF7C3FF0120FFF7CCFFBC
:103F9000FFF7A8FF04460020FFF7C6FF204610BD2C
:103FA00008B50020FFF7B4FF0120FFF7BDFF012097
:103FB000FFF7AEFF08BD38B50120FFF7A9FF0025C8
:103FC0002C4604E00020FFF7AFFF0134E4B2072CD9
:103FD0000BD80120FFF7A8FFFFF784FF0128F1D1DC
:103FE000802323411D43EDB2ECE7284638BD08B5D8
:103FF000FFF78EFF0120FFF797FF0020FFF794FFE8
:1040000008BD000010B5064C01228021204600F0BA
:104010007EFD01224021204600F079FD10BD00BF49
:10402000000C0140F8B504460F4615461E46FFF742
:1040300087FF600000F0FE00FFF790FFFFF7A1FF91
:104040003846FFF78BFFFFF79CFF002405E0305D4B
:10405000FFF784FFFFF795FF0134A542F7DCFFF778
:104060009FFF0020F8BDF8B506460F4614461D46D2
:10407000FFF766FF7600F6B23046FFF76FFFFFF7F7
:1040800080FF3846FFF76AFFFFF77BFFFFF758FF17
:10409000701CC0B2FFF762FFFFF773FF08E0FFF785
:1040A0008AFF28700120FFF7A2FF0135013CE4B22E
:1040B00044B1012CF3D0FFF77EFF28700020FFF7FA
:1040C00096FFF2E7FFF76CFF0020F8BD2DE9F04105
:1040D00088B000240494059406940794304B9A69A0
:1040E00042F020029A619A6902F020020192019A3C
:1040F0009A6942F004029A619A6902F004020292FB
:10410000029A9A6942F008029A619B6903F00803D7
:104110000393039BDFF88C8022460221404600F087
:10412000F6FC214F2246C021384600F0F0FC012564
:1041300004951E4B0593069504A9404600F0CEFB5E
:104140000226049605950695079604A9404600F0B8
:10415000C5FB20230493164B0593069404A9384607
:1041600000F0BCFBC023049311230593069407962B
:1041700004A9384600F0B2FB22463146062000F082
:10418000D1FA062000F006FB22462946172000F04F
:10419000C9FA172000F0FEFA08B0BDE8F08100BFB0
:1041A0000010024000080140000C014000003110E6
:1041B0000000211072B6FEE700B595B0282200215C
:1041C0000DEB020007F074F90023059306930793A3
:1041D00008930993019302930393049301220A9293
:1041E0004FF480330B930E920222119212934FF4EC
:1041F000E01313930AA801F0C9FCC0B90F2305937B
:1042000002210691002307934FF4806208920993DC
:1042100005A801F0EDFE60B910230193002304937B
:1042200001A801F0C1FF30B915B05DF804FBFFF73C
:10423000C1FFFFF7BFFFFFF7BDFF000008B500F0AB
:1042400027FAFFF7B9FFFFF741FF00F067F906F023
:1042500023FC00F04BF81F48FDF76CFD1E48FDF7EE
:1042600061FE1E48FDF740F9FDF7DEFA032005F078
:104270001FFE002005F022FEFDF78CFE07E0154B27
:104280001B6800221A704FF4487000F025FA114B99
:104290001B681A78002AF2D1D3F8403E98470E4B9B
:1042A0001B689B6898470B4B1B681B78022BFAD145
:1042B0000B4B7B220B49012005F006FE064B1B68C9
:1042C000DB689847FDF7E0F900F13001064807F098
:1042D00095FFD4E76C260020A426002008040020C7
:1042E000142E0108242E01084C2E010808B50E4892
:1042F0000E4B03604FF48273436000238360C360FE
:10430000036143614FF400728261C36103624362DF
:104310004FF4005383620723C36201F0D1FF00B959
:1043200008BDFFF747FFFBE7B82600200038004034
:1043300030B587B00023029303930493059302687A
:104340001B4B9A4201D007B030BD03F5EC33DA695C
:1043500042F48042DA61DA6902F480420092009A03
:104360009A6942F008029A619B6903F0080301937D
:10437000019B4FF4304302930223039303230593DD
:104380000C4D02A9284600F0A9FA4FF4804302938D
:1043900000240394049402A9284600F09FFA2246C0
:1043A0002146242000F0BEF9242000F0F3F9CAE7EA
:1043B00000380040000C014082B00E4B9A6942F078
:1043C00001029A619A6902F001020092009ADA6988
:1043D00042F08052DA61DB6903F080530193019B64
:1043E000054A536823F0E06343F00073536002B062
:1043F000704700BF0010024000000140FEE7FEE7EA
:10440000FEE7FEE7FEE770477047704708B500F02B
:1044100051F908BD08B5012000F080FB08BD00007F
:1044200008B5024801F06EF908BD00BFE82D002074
:1044300008B5202000F072FB08BD000008B5024856
:1044400001F0A0FF08BD00BFB826002008B5024853
:1044500002F034FA08BD00BF182700200120704781
:1044600008B506F0DFFC162303604FF0FF3008BDEF
:1044700008B54FF0FF31FFF7F3FFFEE770B50C46CC
:104480001646002506E0AFF30080214601F8010B37
:1044900001350C46B542F6DB304670BD70B50C46B2
:1044A0001646002504E014F8010B00F095F80135DC
:1044B000B542F8DB304670BD4FF0FF3070474FF427
:1044C00000534B6000207047012070470020704768
:1044D00010B503460C4A0D490D48006840B10C4820
:1044E00000680344521A934206D8094A136010BD6B
:1044F0000748084C0460F2E706F094FC0C230360C4
:104500004FF0FF30F3E700BF005000200002000032
:1045100014270020103100207047000008B50A4819
:104520000A4B03604FF46123436000238360C36040
:1045300003610C2242618361C36102F09CF800B9FF
:1045400008BDFFF737FEFBE71827002000380140C1
:1045500030B587B000230293039304930593026858
:104560001B4B9A4201D007B030BD03F558439A69FE
:1045700042F480429A619A6902F480420092009A61
:104580009A6942F004029A619B6903F00403019363
:10459000019B4FF4007302930223039303230593BB
:1045A0000C4D02A9284600F099F94FF4806302935C
:1045B00000240394049402A9284600F08FF92246AF
:1045C0000121252000F0AEF8252000F0E3F8CAE72D
:1045D000003801400008014000B583B001904FF65B
:1045E000FF73012201A9034802F075F8019803B096
:1045F0005DF804FB18270020FFF78EFF0B480C49DD
:104600000C4A002302E0D458C4500433C4188C422E
:10461000F9D3094A094C002301E013600432A24295
:10462000FBD306F0DDFDFFF709FE70470000002018
:10463000EC03002068440108EC0300200C3100204A
:10464000FEE7000010B504460E4B18784FF47A735D
:10465000B3FBF0F30C4A1068B0FBF3F000F0BAF8CB
:1046600068B90F2C01D901200AE0002221464FF041
:10467000FF3000F057F8054B1C60002000E00120DF
:1046800010BD00BF14000020100000201800002002
:1046900008B5074A136843F010031360032000F0C5
:1046A0002FF80F20FFF7CEFFFFF786FE002008BD92
:1046B00000200240034A1168034B1B780B4413602F
:1046C000704700BF6027002014000020014B1868CD
:1046D000704700BF6027002038B50446FFF7F6FF9B
:1046E0000546B4F1FF3F02D0044B1B781C44FFF792
:1046F000EDFF401BA042FAD338BD00BF14000020DC
:10470000074AD36823F4E0631B041B0C000200F487
:10471000E060034343F0BF6343F40033D36070476A
:1047200000ED00E000B5194BDB68C3F30223C3F1D1
:10473000070CBCF1040F28BF4FF0040C03F1040E6A
:10474000BEF1060F18D9033B4FF0FF3E0EFA0CFCEA
:1047500021EA0C0199400EFA03F322EA03031943FC
:1047600000280BDB0901C9B200F1604000F561408F
:1047700080F800135DF804FB0023E5E700F00F006C
:104780000901C9B2024B1954F4E700BF00ED00E083
:1047900014ED00E0002807DB00F01F0240090123B0
:1047A0009340024A42F82030704700BF00E100E029
:1047B00000280CDB00F01F02400901239340203049
:1047C000034A42F82030BFF34F8FBFF36F8F70471B
:1047D00000E100E00138B0F1807F0BD24FF0E02320
:1047E0005861054AF02182F82310002098610722C1
:1047F0001A6170470120704700ED00E090F8213009
:10480000DBB2022B06D004238363002380F8203020
:10481000012070470268136823F00E0313600268DA
:10482000136823F001031360036CC16B012202FAC9
:1048300003F34B6080F82120002380F820301846D5
:104840007047000008B590F82130DBB2022B03D08E
:1048500004238363012008BD0268136823F00E035C
:1048600013600268136823F0010313600368194A98
:10487000934214D0143293421FD0143293421ED06C
:10488000143293421ED0143293421ED014329342FB
:1048900002D04FF0807203E04FF4801200E001225A
:1048A0000D4B5A60012380F82130002380F820301E
:1048B000436B6BB198470020CDE71022F0E74FF42F
:1048C0008072EDE74FF48052EAE74FF48032E7E779
:1048D0000020C0E7080002400000024070B582B02E
:1048E0000024A446A6E0804DAA4210D007D97F4DEF
:1048F000AA420CD005F58035AA4208D013E0A5F5F0
:104900008015AA4203D005F57025AA4207D18A680E
:10491000002A58D0012A51D04361082403E0A5F5AC
:104920008015AA42F3D0BEF1FF0F4ED80646BEF165
:10493000FF0F4CD84FEA8C0233680F25954023EACD
:10494000050304FA02F2134333604B6813F0805FEF
:104950006ED0674B9A6942F001029A619B6903F03D
:1049600001030193019B4FEA9C02951C614B53F894
:1049700025600CF003039D000F23AB4026EA0306DD
:104980005D4B984229D003F58063984200F08E80F9
:1049900003F58063984200F08B8003F580639842B2
:1049A00019D004231AE0CC68BDE7CC680434BAE718
:1049B000CC680834B7E7CC680C34B4E7036108244A
:1049C000B1E70024AFE70424ADE7061DAFE7ACF183
:1049D00008029200B0E7032300E00023AB4033431A
:1049E0000232444D45F822304B6813F4801F61D0E9
:1049F000424A936843EA0E0393604B6813F4001F26
:104A00005ED03E4AD36843EA0E03D3604B6813F48A
:104A1000003F5BD0394A536843EA0E0353604B684A
:104A200013F4803F58D0354A136843EA0E031360ED
:104A30000CF1010C0A6832FA0CF353D0012303FA8B
:104A40000CF302EA030E33EA0202F1D14A68122A99
:104A50003FF649AF122A3FF666AF01A555F822F09E
:104A60000F490008A7490008B1490008C3490008D8
:104A70002749000827490008274900082749000856
:104A80002749000827490008274900082749000846
:104A90002749000827490008274900082749000836
:104AA00027490008AB490008B7490008012395E7EA
:104AB000022393E7114A936823EA0E0393609CE76D
:104AC0000E4AD36823EA0E03D3609FE70B4A53686C
:104AD00023EA0E035360A2E7084A136823EA0E0391
:104AE0001360A5E702B070BD000022100000311075
:104AF0000010024000000140000801400004014095
:104B00008368194201D001207047002070470AB124
:104B100001617047090401617047000008B5054B49
:104B20005B69034200D108BD024B5861FDF75AF999
:104B3000F9E700BF0004014038B512F4804F44D0BB
:104B40000468B4F850309BB291F800C003EBCC037A
:104B5000023304EB4303B3F80044C4F309048B6944
:104B6000A34228D31B1B8B618B697BB9056835F881
:104B70002C309BB223F4804323F0700383F4005362
:104B800043F4004343F0800325F82C3012F0400F2B
:104B90000ED002680D7832F825309BB223F4E04342
:104BA00023F0700343F4004343F0C00322F82530A0
:104BB00024B9204638BD00238B61D5E723460A89F6
:104BC0004969006802F03CFFF3E70468B4F850302C
:104BD0009BB291F800C003EBCC03063304EB430314
:104BE000B3F80044C4F309048B69A3422FD31B1B01
:104BF0008B618B697BB9056835F82C309BB223F447
:104C0000804323F0700383F4005343F4004343F0E4
:104C1000800325F82C3012F0400F0FD1026891F874
:104C200000C032F82C309BB223F4E04323F0700331
:104C300043F4004343F0C00322F82C30002CB8D0DA
:104C400023464A894969006802F0FAFEB1E7002369
:104C50008B61CEE738B500286ED0044690F89132CB
:104C6000A3B1032384F8913200236371206801F01B
:104C700079FF234653F8040B0ECB01F063FF50B1CC
:104C8000022384F891320125284638BD80F89032FD
:104C900005F0C6FFE5E70021206801F06DFF03463F
:104CA00008B9024615E0022384F891320125EBE7AA
:104CB00002EB820104EBC101012048740A74002058
:104CC000C87408624862013202EB8201C900605078
:104CD000D2B220799042EBD816E003EB830204EBCA
:104CE000C202002182F8511182F8503182F853112A
:104CF000C2F86011C2F8641103EB830204EBC20234
:104D0000C2F868110133DBB29842E6D8234653F863
:104D1000040B0ECB01F032FF054620B1022384F8CC
:104D200091320125B0E700236373012384F89132A7
:104D3000206802F082FAA7E70125A5E738B590F8C8
:104D40009032012B11D00446012580F89052006862
:104D500001F0FFFE2946204606F063F8206802F0C5
:104D60006AFA002084F8900238BD0220FCE770B592
:104D700005460C46164612F0400F00F00E81026800
:104D8000B2F850309BB2097803EBC103023302EB57
:104D90004303B3F80024C2F30902A36993424ED936
:104DA0009B1AA361A369002B66D16378002B49D1BC
:104DB0002B68B3F8502092B2134403EB0111B1F801
:104DC0000434C3F30903A1F80434B1F804346FEADE
:104DD00043436FEA53439BB2A1F804342B686278D3
:104DE000002A3CD1B3F8502092B21344227803EB4E
:104DF0000213B3F80C24C2F30902A3F80C24B3F88D
:104E00000C246FEA42426FEA524292B2A3F80C2499
:104E10002178284605F038FF16F4804F41D02A68E3
:104E2000217832F821309BB223F4E04323F0700361
:104E300043F4404343F0800322F8213031E0002363
:104E4000A361AFE7012BC9D12B68B3F8502092B210
:104E5000134403EB01110023A1F80434BEE7012A37
:104E6000D6D1B3F8502092B21344227803EB021348
:104E70000022A3F80C24CBE716F4804F0DD028684D
:104E800030F821309BB223F4E04323F0700343F465
:104E9000404343F0800320F8213094F82430012B64
:104EA00012D02A68217832F821309BB223F4E043F3
:104EB00023F0400383F0300343F4004343F08003C6
:104EC00022F82130002070BD636913446361E369F7
:104ED0001344E361216A2369994224D3C91A2162E8
:104EE0006278002A44D12A68B2F8501089B20A4484
:104EF000217802EB0112B2F80414C1F30901A2F8FF
:104F000004143E2B1BD9580913F01F0F00D1013890
:104F1000B2F8041489B2800280B2014341F4004126
:104F2000A2F8041426E021B9002384F824301346A3
:104F3000D6E7002384F8243023620B46D0E74BB930
:104F4000B2F804146FEA41416FEA514189B2A2F804
:104F500004140FE0590813F0010F00D00131B2F82A
:104F6000040480B2890289B20143A2F8041401E06A
:104F7000012A06D09BB222896169286802F065F98E
:104F80008FE72A68B2F8501089B20A44217802EB00
:104F9000011299B2A2F80414ECE70268B2F850309A
:104FA0009BB2097803EBC103063302EB4303B3F86A
:104FB0000024C2F30902A36993424FD39B1AA36151
:104FC000A369002B67D16378002B4AD12B68B3F813
:104FD000502092B2134403EB0111B1F80434C3F32F
:104FE0000903A1F80434B1F804346FEA43436FEACB
:104FF00053439BB2A1F804342B686278002A3DD158
:10500000B3F8502092B21344227803EB0213B3F8A2
:105010000C24C2F30902A3F80C24B3F80C246FEAA1
:1050200042426FEA524292B2A3F80C2421782846F9
:1050300005F02AFE16F4804F7FF433AF2A682178FA
:1050400032F821309BB223F4E04323F0700343F4A1
:10505000404343F0800322F8213022E70023A3617C
:10506000AEE7012BC8D12B68B3F8502092B213449D
:1050700003EB01110023A1F80434BDE7012AD5D1C7
:10508000B3F8502092B21344227803EB02130022AB
:10509000A3F80C24CAE716F4804F0DD1286830F825
:1050A00021309BB223F4E04323F0700343F44043E8
:1050B00043F0800320F8213094F82430012B7FF452
:1050C000F0AE636913446361E3691344E361216AE9
:1050D0002369994224D3C91A21622A686178002978
:1050E00043D1B2F8501089B20A44217802EB011280
:1050F000B2F80C14C1F30901A2F80C143E2B1BD911
:10510000580913F01F0F00D10138B2F80C1489B2FE
:10511000800280B2014341F40041A2F80C1426E061
:1051200021B9002384F824301346D6E700232362F4
:1051300084F824300B46D0E74BB9B2F80C146FEA70
:1051400041416FEA514189B2A2F80C140FE05908AD
:1051500013F0010F00D00131B2F80C0480B28902C3
:1051600089B20143A2F80C1401E0012906D09BB2D8
:1051700062896169286802F068F892E6B2F8501016
:1051800089B20A44217802EB011299B2A2F80C14F8
:10519000EDE72DE9F04105462868B0F8443013F4F6
:1051A000004F00F09982B0F84440A3B214F00F040D
:1051B00040F0DE8013F0100F6BD003889AB213F426
:1051C000006F40F0998012F4004FE5D0038823F07F
:1051D00070031B051B0D43F0800303802868B0F8A3
:1051E00050309BB295F8502103EBC203063300EB1D
:1051F0004303B3F80034C3F30903C5F86C318BB132
:10520000D5F8641171B1B5F8562102F019FCD5F842
:105210006C21D5F864311344C5F864310021284667
:1052200005F026FD2A68138899B213F4006FB3D1F4
:1052300001F44051B1F5405FAED0B2F850309BB2AE
:105240001A44B2F80C34C3F30903A2F80C34D5F8AD
:1052500060313E2B73D9590913F01F0F00D101396A
:10526000B2F80C349BB2890289B20B4343F4004379
:10527000A2F80C342A6813889BB223F4804323F0ED
:10528000700383F4405343F4004343F080031380DE
:1052900082E703889BB223F4E14323F070036FEAB3
:1052A00043436FEA53439BB203802A68B2F85030FD
:1052B0009BB2297C03EBC103023302EB4303B3F837
:1052C0000034C3F30903EB626A6A13446B62002182
:1052D000284605F0D9FC6B7B002B3FF45DAFAB6A31
:1052E000002B7FF459AF6B7B2A6843F08003A2F850
:1052F0004C3000236B734FE7B0F850309BB295F8F9
:10530000502103EBC203063300EB4303B3F8003430
:10531000C3F30903C5F86C31B5F8562105F52671BC
:1053200002F08EFB2A68138823F070031B051B0D07
:1053300043F080031380284605F092FC2CE74BB91C
:10534000B2F80C346FEA43436FEA53439BB2A2F8BE
:105350000C348FE7590813F0010F00D00131B2F877
:105360000C3498B28B029BB20343A2F80C3481E751
:1053700030F824309EB213F4004F50D116F0800F55
:105380003FF40AAF04EB8401C900103129442A68B4
:1053900032F824309BB223F4E14323F070036FEA28
:1053A00043436FEA53439BB222F8243004EB840357
:1053B00005EBC303DB7C012B00F0F28016F4807F49
:1053C00040F085812868B0F850309BB204EB84022D
:1053D00005EBC202167C03EBC603023300EB43036A
:1053E000B3F80034C3F30903621C02EB820255F8E0
:1053F00032209A4240F25281671C07EB8707D21A8B
:1054000045F83720621C02EB820255F83220002A50
:1054100040F04B813146284605F036FCBCE630F8BA
:10542000243023F070031B051B0D43F0800320F88C
:10543000243004EB8401C90001F5A87105EB0108D3
:1054400004EB840305EBC30393F85C31002B42D1DA
:105450002868B0F850309BB204EB840205EBC2021E
:1054600092F8502103EBC203063300EB4303B3F879
:105470000074C7F3090717BB04EB840305EBC303F0
:10548000D3F86C213A44C3F86C21D3F864213A4430
:10549000C3F86421D3F868313BB104EB840305EB16
:1054A000C303D3F860319F4275D204EB840305EB4C
:1054B000C30393F85011284605F0DAFB5EE704EBCE
:1054C000840105EBC1013B46B1F85621D1F86411C6
:1054D00002F0B6FAD0E704EB840305EBC30393F8BC
:1054E0005331022B35D0296804EB840205EBC2024C
:1054F00092F8500131F820309BB223F4E04323F0BE
:10550000700343F4004343F0C00321F820302868BF
:1055100092F8502130F8223013F4804F20D0B0F8A8
:1055200050309BB203EBC203023300EB4303B3F8EA
:105530000074C7F30907002F9ED004EB840105EB2C
:10554000C1013B46B1F85821D1F8641102F078FA54
:1055500092E7324641462846FFF7EEFA07468BE7C8
:10556000B0F850309BB203EBC203063300EB4303A9
:10557000B3F80074C7F30907002F3FF47DAF04EBC5
:10558000840105EBC1013B46B1F85A21D1F8641101
:1055900002F056FA70E74146286801F06AFEEDE62F
:1055A000631C03EB8303DB000022EA5004EB84035B
:1055B00005EBC3031B7F1BB316F0400F3BD004EB7E
:1055C000840305EBC3035B7C1BBB2B68B3F8502043
:1055D00092B2134404EB840205EBC202127C03EB8B
:1055E0000213B3F80424C2F30902A3F80424B3F8A5
:1055F00004246FEA42426FEA524292B2A3F80424B2
:1056000004EB840405EBC404217C284605F03CFB34
:10561000C2E5012BF4D12B68B3F8502092B21344A9
:1056200004EB840205EBC202127C03EB021300229E
:10563000A3F80424E4E72B6804EB840205EBC20220
:10564000527CD2B9B3F8502092B2134404EB8402D6
:1056500005EBC202127C03EB0213B3F80C24C2F375
:105660000902A3F80C24B3F80C246FEA42426FEA53
:10567000524292B2A3F80C24C2E7012AC0D1B3F877
:10568000502092B2134404EB840205EBC202127C58
:1056900003EB02130022A3F80C24B1E7621C02EB17
:1056A0008202D2000027AF50ACE604EB840205EB87
:1056B000C202566A1E445662013404EB840205EBB2
:1056C000C20254682344536001F0D3FD64E53246BE
:1056D0002846FFF74CFB5FE50020BDE8F08190F81D
:1056E0009032012B0CD010B50446012380F8903283
:1056F0004173006801F099FD002084F8900210BD0C
:105700000220704710B584B00446006801F097FD90
:1057100010F4004F20D110F4806F21D110F4804F8D
:105720002FD110F4005F37D110F4805F3ED110F418
:10573000006F40F0878010F4007F40F0AE8010F4DE
:10574000807F27D02268B2F844309BB223F4807364
:105750009BB2A2F844301DE02046FFF71AFD19E085
:105760002268B2F844309BB223F480639BB2A2F863
:105770004430204605F099FA00212046FFF7AFFF9C
:1057800008E02268B2F844309BB223F480439BB215
:10579000A2F8443004B010BD2268B2F844309BB285
:1057A00023F400539BB2A2F84430F3E72268B2F826
:1057B00040309BB223F004039BB2A2F84030226831
:1057C000B2F840309BB223F008039BB2A2F84030FD
:1057D000204605F08DFA2268B2F844309BB223F4DB
:1057E00080539BB2A2F84430D4E7226832F82310E9
:1057F00004AA02EB430222F8101C0133DBB2072B90
:10580000F3D92268B2F840309BB243F00103A2F80A
:1058100040302268B2F840309BB223F001039BB2C3
:10582000A2F840302368B3F8442012F4806FF9D016
:10583000B3F8442092B222F4806292B2A3F84420DA
:1058400000230BE00023DAE7226804A901EB4301FF
:1058500031F8101C22F823100133DBB2072BF3D9E7
:105860002268B2F840309BB243F00803A2F84030FF
:105870002268B2F844309BB223F400639BB2A2F8D2
:1058800044302268B2F840309BB243F00403A2F8DF
:105890004030204605F01CFA7CE72268B2F844301C
:1058A0009BB223F400739BB2A2F84430204605F06B
:1058B000F6F96FE710B50446084611F0800F26D1BF
:1058C00001F0070C0CEB8C0E4FEACE0E0EF5A87E05
:1058D00004EB0E010CEB8C0C04EBCC0C4FF0000E27
:1058E0008CF851E100F0070008700A61CB70022BC0
:1058F0001DD094F89032012B1CD0012384F89032F3
:10590000206801F04CF9002084F8900210BD01F0ED
:10591000070C0CEB8C01C900103121440CEB8C0CF2
:1059200004EBCC0C4FF0010E8CF811E0DAE7002309
:105930000B71DEE70220E9E710B504460A4611F0D4
:10594000800F1FD101F0070000EB8003DB0003F59F
:10595000A873E11800EB800004EBC000002380F87E
:10596000513102F007020A7094F89032012B17D0DF
:10597000012384F89032206801F0F6FA002084F8C0
:10598000900210BD01F0070000EB8003DB00103334
:10599000E11800EB800004EBC00001234374E0E752
:1059A0000220EEE710B501F0070C0CEB8C01C900EA
:1059B00001F5A8710CEB8C0E00EBCE0ECEF8642135
:1059C000CEF868310024CEF86C418EF851418EF843
:1059D00050C10144006801F04CFC204610BD38B5B0
:1059E00001F0070C0CEB8C01C90010310CEB8C0E94
:1059F00000EBCE0ECEF824200CF1010202EB820463
:105A000040F8343001258EF83450CEF8303000EBB9
:105A1000C402002454608EF811508EF810C0014466
:105A2000006801F026FC204638BD38B501F00705B6
:105A30000279AA4235D304460B4611F0800F1ED1DD
:105A400001EB8101C90001F5A871014403EB830357
:105A500000EBC303002283F8512101238B700D70EA
:105A600094F89032012B1ED0012384F890322068E4
:105A700001F065FB7DB1002084F8900238BD05EB94
:105A80008501C9001031014405EB850300EBC30318
:105A900001225A74E1E704F52671206801F0D3FB76
:105AA000E9E70120EAE70220E8E70B46017903F085
:105AB0000F02914234D310B5044613F0800F21D168
:105AC00003F0070202EB8201C90001F5A87101444D
:105AD00002EB820200EBC202002082F85101002298
